{
  "_format": "hh-sol-artifact-1",
  "contractName": "PortfolioNFT",
  "sourceName": "contracts/PortfolioNFT.sol",
  "abi": [
    {
      "inputs": [],
      "stateMutability": "nonpayable",
      "type": "constructor"
    },
    {
      "inputs": [
        {
          "internalType": "address",
          "name": "sender",
          "type": "address"
        },
        {
          "internalType": "uint256",
          "name": "tokenId",
          "type": "uint256"
        },
        {
          "internalType": "address",
          "name": "owner",
          "type": "address"
        }
      ],
      "name": "ERC721IncorrectOwner",
      "type": "error"
    },
    {
      "inputs": [
        {
          "internalType": "address",
          "name": "operator",
          "type": "address"
        },
        {
          "internalType": "uint256",
          "name": "tokenId",
          "type": "uint256"
        }
      ],
      "name": "ERC721InsufficientApproval",
      "type": "error"
    },
    {
      "inputs": [
        {
          "internalType": "address",
          "name": "approver",
          "type": "address"
        }
      ],
      "name": "ERC721InvalidApprover",
      "type": "error"
    },
    {
      "inputs": [
        {
          "internalType": "address",
          "name": "operator",
          "type": "address"
        }
      ],
      "name": "ERC721InvalidOperator",
      "type": "error"
    },
    {
      "inputs": [
        {
          "internalType": "address",
          "name": "owner",
          "type": "address"
        }
      ],
      "name": "ERC721InvalidOwner",
      "type": "error"
    },
    {
      "inputs": [
        {
          "internalType": "address",
          "name": "receiver",
          "type": "address"
        }
      ],
      "name": "ERC721InvalidReceiver",
      "type": "error"
    },
    {
      "inputs": [
        {
          "internalType": "address",
          "name": "sender",
          "type": "address"
        }
      ],
      "name": "ERC721InvalidSender",
      "type": "error"
    },
    {
      "inputs": [
        {
          "internalType": "uint256",
          "name": "tokenId",
          "type": "uint256"
        }
      ],
      "name": "ERC721NonexistentToken",
      "type": "error"
    },
    {
      "inputs": [
        {
          "internalType": "address",
          "name": "owner",
          "type": "address"
        }
      ],
      "name": "OwnableInvalidOwner",
      "type": "error"
    },
    {
      "inputs": [
        {
          "internalType": "address",
          "name": "account",
          "type": "address"
        }
      ],
      "name": "OwnableUnauthorizedAccount",
      "type": "error"
    },
    {
      "anonymous": false,
      "inputs": [
        {
          "indexed": true,
          "internalType": "address",
          "name": "owner",
          "type": "address"
        },
        {
          "indexed": true,
          "internalType": "address",
          "name": "approved",
          "type": "address"
        },
        {
          "indexed": true,
          "internalType": "uint256",
          "name": "tokenId",
          "type": "uint256"
        }
      ],
      "name": "Approval",
      "type": "event"
    },
    {
      "anonymous": false,
      "inputs": [
        {
          "indexed": true,
          "internalType": "address",
          "name": "owner",
          "type": "address"
        },
        {
          "indexed": true,
          "internalType": "address",
          "name": "operator",
          "type": "address"
        },
        {
          "indexed": false,
          "internalType": "bool",
          "name": "approved",
          "type": "bool"
        }
      ],
      "name": "ApprovalForAll",
      "type": "event"
    },
    {
      "anonymous": false,
      "inputs": [
        {
          "indexed": false,
          "internalType": "uint256",
          "name": "_fromTokenId",
          "type": "uint256"
        },
        {
          "indexed": false,
          "internalType": "uint256",
          "name": "_toTokenId",
          "type": "uint256"
        }
      ],
      "name": "BatchMetadataUpdate",
      "type": "event"
    },
    {
      "anonymous": false,
      "inputs": [
        {
          "indexed": false,
          "internalType": "uint256",
          "name": "_tokenId",
          "type": "uint256"
        }
      ],
      "name": "MetadataUpdate",
      "type": "event"
    },
    {
      "anonymous": false,
      "inputs": [
        {
          "indexed": true,
          "internalType": "address",
          "name": "previousOwner",
          "type": "address"
        },
        {
          "indexed": true,
          "internalType": "address",
          "name": "newOwner",
          "type": "address"
        }
      ],
      "name": "OwnershipTransferred",
      "type": "event"
    },
    {
      "anonymous": false,
      "inputs": [
        {
          "indexed": true,
          "internalType": "uint256",
          "name": "tokenId",
          "type": "uint256"
        },
        {
          "indexed": true,
          "internalType": "address",
          "name": "owner",
          "type": "address"
        },
        {
          "indexed": false,
          "internalType": "string",
          "name": "studentName",
          "type": "string"
        },
        {
          "indexed": false,
          "internalType": "string",
          "name": "ipfsHash",
          "type": "string"
        },
        {
          "indexed": false,
          "internalType": "uint256",
          "name": "mintDate",
          "type": "uint256"
        }
      ],
      "name": "PortfolioMinted",
      "type": "event"
    },
    {
      "anonymous": false,
      "inputs": [
        {
          "indexed": true,
          "internalType": "uint256",
          "name": "tokenId",
          "type": "uint256"
        },
        {
          "indexed": false,
          "internalType": "bool",
          "name": "verified",
          "type": "bool"
        }
      ],
      "name": "PortfolioVerified",
      "type": "event"
    },
    {
      "anonymous": false,
      "inputs": [
        {
          "indexed": true,
          "internalType": "address",
          "name": "from",
          "type": "address"
        },
        {
          "indexed": true,
          "internalType": "address",
          "name": "to",
          "type": "address"
        },
        {
          "indexed": true,
          "internalType": "uint256",
          "name": "tokenId",
          "type": "uint256"
        }
      ],
      "name": "Transfer",
      "type": "event"
    },
    {
      "inputs": [
        {
          "internalType": "address",
          "name": "to",
          "type": "address"
        },
        {
          "internalType": "uint256",
          "name": "tokenId",
          "type": "uint256"
        }
      ],
      "name": "approve",
      "outputs": [],
      "stateMutability": "nonpayable",
      "type": "function"
    },
    {
      "inputs": [
        {
          "internalType": "address",
          "name": "owner",
          "type": "address"
        }
      ],
      "name": "balanceOf",
      "outputs": [
        {
          "internalType": "uint256",
          "name": "",
          "type": "uint256"
        }
      ],
      "stateMutability": "view",
      "type": "function"
    },
    {
      "inputs": [
        {
          "internalType": "uint256",
          "name": "tokenId",
          "type": "uint256"
        }
      ],
      "name": "getApproved",
      "outputs": [
        {
          "internalType": "address",
          "name": "",
          "type": "address"
        }
      ],
      "stateMutability": "view",
      "type": "function"
    },
    {
      "inputs": [
        {
          "internalType": "address",
          "name": "owner",
          "type": "address"
        }
      ],
      "name": "getOwnerTokens",
      "outputs": [
        {
          "internalType": "uint256[]",
          "name": "",
          "type": "uint256[]"
        }
      ],
      "stateMutability": "view",
      "type": "function"
    },
    {
      "inputs": [
        {
          "internalType": "uint256",
          "name": "tokenId",
          "type": "uint256"
        }
      ],
      "name": "getPortfolioInfo",
      "outputs": [
        {
          "internalType": "string",
          "name": "studentName",
          "type": "string"
        },
        {
          "internalType": "string",
          "name": "studentId",
          "type": "string"
        },
        {
          "internalType": "string",
          "name": "email",
          "type": "string"
        },
        {
          "internalType": "string",
          "name": "institution",
          "type": "string"
        },
        {
          "internalType": "uint256",
          "name": "gpa",
          "type": "uint256"
        },
        {
          "internalType": "uint256",
          "name": "mintDate",
          "type": "uint256"
        },
        {
          "internalType": "string",
          "name": "ipfsHash",
          "type": "string"
        },
        {
          "internalType": "bool",
          "name": "verified",
          "type": "bool"
        }
      ],
      "stateMutability": "view",
      "type": "function"
    },
    {
      "inputs": [
        {
          "internalType": "address",
          "name": "owner",
          "type": "address"
        },
        {
          "internalType": "address",
          "name": "operator",
          "type": "address"
        }
      ],
      "name": "isApprovedForAll",
      "outputs": [
        {
          "internalType": "bool",
          "name": "",
          "type": "bool"
        }
      ],
      "stateMutability": "view",
      "type": "function"
    },
    {
      "inputs": [
        {
          "internalType": "address",
          "name": "to",
          "type": "address"
        },
        {
          "internalType": "string",
          "name": "studentName",
          "type": "string"
        },
        {
          "internalType": "string",
          "name": "studentId",
          "type": "string"
        },
        {
          "internalType": "string",
          "name": "email",
          "type": "string"
        },
        {
          "internalType": "string",
          "name": "institution",
          "type": "string"
        },
        {
          "internalType": "uint256",
          "name": "gpa",
          "type": "uint256"
        },
        {
          "internalType": "string",
          "name": "ipfsHash",
          "type": "string"
        },
        {
          "internalType": "string",
          "name": "metadataURI",
          "type": "string"
        }
      ],
      "name": "mintPortfolio",
      "outputs": [
        {
          "internalType": "uint256",
          "name": "",
          "type": "uint256"
        }
      ],
      "stateMutability": "nonpayable",
      "type": "function"
    },
    {
      "inputs": [],
      "name": "name",
      "outputs": [
        {
          "internalType": "string",
          "name": "",
          "type": "string"
        }
      ],
      "stateMutability": "view",
      "type": "function"
    },
    {
      "inputs": [],
      "name": "owner",
      "outputs": [
        {
          "internalType": "address",
          "name": "",
          "type": "address"
        }
      ],
      "stateMutability": "view",
      "type": "function"
    },
    {
      "inputs": [
        {
          "internalType": "uint256",
          "name": "tokenId",
          "type": "uint256"
        }
      ],
      "name": "ownerOf",
      "outputs": [
        {
          "internalType": "address",
          "name": "",
          "type": "address"
        }
      ],
      "stateMutability": "view",
      "type": "function"
    },
    {
      "inputs": [
        {
          "internalType": "address",
          "name": "",
          "type": "address"
        },
        {
          "internalType": "uint256",
          "name": "",
          "type": "uint256"
        }
      ],
      "name": "ownerTokens",
      "outputs": [
        {
          "internalType": "uint256",
          "name": "",
          "type": "uint256"
        }
      ],
      "stateMutability": "view",
      "type": "function"
    },
    {
      "inputs": [
        {
          "internalType": "uint256",
          "name": "",
          "type": "uint256"
        }
      ],
      "name": "portfolioData",
      "outputs": [
        {
          "internalType": "string",
          "name": "studentName",
          "type": "string"
        },
        {
          "internalType": "string",
          "name": "studentId",
          "type": "string"
        },
        {
          "internalType": "string",
          "name": "email",
          "type": "string"
        },
        {
          "internalType": "string",
          "name": "institution",
          "type": "string"
        },
        {
          "internalType": "uint256",
          "name": "gpa",
          "type": "uint256"
        },
        {
          "internalType": "uint256",
          "name": "mintDate",
          "type": "uint256"
        },
        {
          "internalType": "string",
          "name": "ipfsHash",
          "type": "string"
        },
        {
          "internalType": "bool",
          "name": "verified",
          "type": "bool"
        }
      ],
      "stateMutability": "view",
      "type": "function"
    },
    {
      "inputs": [],
      "name": "renounceOwnership",
      "outputs": [],
      "stateMutability": "nonpayable",
      "type": "function"
    },
    {
      "inputs": [
        {
          "internalType": "address",
          "name": "from",
          "type": "address"
        },
        {
          "internalType": "address",
          "name": "to",
          "type": "address"
        },
        {
          "internalType": "uint256",
          "name": "tokenId",
          "type": "uint256"
        }
      ],
      "name": "safeTransferFrom",
      "outputs": [],
      "stateMutability": "nonpayable",
      "type": "function"
    },
    {
      "inputs": [
        {
          "internalType": "address",
          "name": "from",
          "type": "address"
        },
        {
          "internalType": "address",
          "name": "to",
          "type": "address"
        },
        {
          "internalType": "uint256",
          "name": "tokenId",
          "type": "uint256"
        },
        {
          "internalType": "bytes",
          "name": "data",
          "type": "bytes"
        }
      ],
      "name": "safeTransferFrom",
      "outputs": [],
      "stateMutability": "nonpayable",
      "type": "function"
    },
    {
      "inputs": [
        {
          "internalType": "address",
          "name": "operator",
          "type": "address"
        },
        {
          "internalType": "bool",
          "name": "approved",
          "type": "bool"
        }
      ],
      "name": "setApprovalForAll",
      "outputs": [],
      "stateMutability": "nonpayable",
      "type": "function"
    },
    {
      "inputs": [
        {
          "internalType": "bytes4",
          "name": "interfaceId",
          "type": "bytes4"
        }
      ],
      "name": "supportsInterface",
      "outputs": [
        {
          "internalType": "bool",
          "name": "",
          "type": "bool"
        }
      ],
      "stateMutability": "view",
      "type": "function"
    },
    {
      "inputs": [],
      "name": "symbol",
      "outputs": [
        {
          "internalType": "string",
          "name": "",
          "type": "string"
        }
      ],
      "stateMutability": "view",
      "type": "function"
    },
    {
      "inputs": [
        {
          "internalType": "uint256",
          "name": "tokenId",
          "type": "uint256"
        }
      ],
      "name": "tokenURI",
      "outputs": [
        {
          "internalType": "string",
          "name": "",
          "type": "string"
        }
      ],
      "stateMutability": "view",
      "type": "function"
    },
    {
      "inputs": [],
      "name": "totalSupply",
      "outputs": [
        {
          "internalType": "uint256",
          "name": "",
          "type": "uint256"
        }
      ],
      "stateMutability": "view",
      "type": "function"
    },
    {
      "inputs": [
        {
          "internalType": "address",
          "name": "from",
          "type": "address"
        },
        {
          "internalType": "address",
          "name": "to",
          "type": "address"
        },
        {
          "internalType": "uint256",
          "name": "tokenId",
          "type": "uint256"
        }
      ],
      "name": "transferFrom",
      "outputs": [],
      "stateMutability": "nonpayable",
      "type": "function"
    },
    {
      "inputs": [
        {
          "internalType": "address",
          "name": "newOwner",
          "type": "address"
        }
      ],
      "name": "transferOwnership",
      "outputs": [],
      "stateMutability": "nonpayable",
      "type": "function"
    },
    {
      "inputs": [
        {
          "internalType": "uint256",
          "name": "tokenId",
          "type": "uint256"
        },
        {
          "internalType": "bool",
          "name": "verified",
          "type": "bool"
        }
      ],
      "name": "verifyPortfolio",
      "outputs": [],
      "stateMutability": "nonpayable",
      "type": "function"
    }
  ],
  "bytecode": "0x60806040523480156200001157600080fd5b50336040518060400160405280601381526020017f45647557616c6c657420506f7274666f6c696f000000000000000000000000008152506040518060400160405280600681526020017f4544554e46540000000000000000000000000000000000000000000000000000815250816000908162000090919062000472565b508060019081620000a2919062000472565b505050600073ffffffffffffffffffffffffffffffffffffffff168173ffffffffffffffffffffffffffffffffffffffff16036200011a5760006040517f1e4fbdf70000000000000000000000000000000000000000000000000000000081526004016200011191906200059e565b60405180910390fd5b6200012b816200013260201b60201c565b50620005bb565b6000600760009054906101000a900473ffffffffffffffffffffffffffffffffffffffff16905081600760006101000a81548173ffffffffffffffffffffffffffffffffffffffff021916908373ffffffffffffffffffffffffffffffffffffffff1602179055508173ffffffffffffffffffffffffffffffffffffffff168173ffffffffffffffffffffffffffffffffffffffff167f8be0079c531659141344cd1fd0a4f28419497f9722a3daafe3b4186f6b6457e060405160405180910390a35050565b600081519050919050565b7f4e487b7100000000000000000000000000000000000000000000000000000000600052604160045260246000fd5b7f4e487b7100000000000000000000000000000000000000000000000000000000600052602260045260246000fd5b600060028204905060018216806200027a57607f821691505b60208210810362000290576200028f62000232565b5b50919050565b60008190508160005260206000209050919050565b60006020601f8301049050919050565b600082821b905092915050565b600060088302620002fa7fffffffffffffffffffffffffffffffffffffffffffffffffffffffffffffffff82620002bb565b620003068683620002bb565b95508019841693508086168417925050509392505050565b6000819050919050565b6000819050919050565b6000620003536200034d62000347846200031e565b62000328565b6200031e565b9050919050565b6000819050919050565b6200036f8362000332565b620003876200037e826200035a565b848454620002c8565b825550505050565b600090565b6200039e6200038f565b620003ab81848462000364565b505050565b5b81811015620003d357620003c760008262000394565b600181019050620003b1565b5050565b601f8211156200042257620003ec8162000296565b620003f784620002ab565b8101602085101562000407578190505b6200041f6200041685620002ab565b830182620003b0565b50505b505050565b600082821c905092915050565b6000620004476000198460080262000427565b1980831691505092915050565b600062000462838362000434565b9150826002028217905092915050565b6200047d82620001f8565b67ffffffffffffffff81111562000499576200049862000203565b5b620004a5825462000261565b620004b2828285620003d7565b600060209050601f831160018114620004ea5760008415620004d5578287015190505b620004e1858262000454565b86555062000551565b601f198416620004fa8662000296565b60005b828110156200052457848901518255600182019150602085019450602081019050620004fd565b8683101562000544578489015162000540601f89168262000434565b8355505b6001600288020188555050505b505050505050565b600073ffffffffffffffffffffffffffffffffffffffff82169050919050565b6000620005868262000559565b9050919050565b620005988162000579565b82525050565b6000602082019050620005b560008301846200058d565b92915050565b6137cc80620005cb6000396000f3fe608060405234801561001057600080fd5b506004361061014d5760003560e01c80637fe2cb5a116100c3578063c3c6a23b1161007c578063c3c6a23b1461039c578063c87b56dd146103d3578063cd7da43414610403578063d63d4af01461043a578063e985e9c51461046a578063f2fde38b1461049a5761014d565b80637fe2cb5a146102dc5780638da5cb5b146102f857806392fe0ddc1461031657806395d89b4114610346578063a22cb46514610364578063b88d4fde146103805761014d565b806323b872dd1161011557806323b872dd1461020a57806328b600311461022657806342842e0e146102565780636352211e1461027257806370a08231146102a2578063715018a6146102d25761014d565b806301ffc9a71461015257806306fdde0314610182578063081812fc146101a0578063095ea7b3146101d057806318160ddd146101ec575b600080fd5b61016c6004803603810190610167919061276c565b6104b6565b60405161017991906127b4565b60405180910390f35b61018a6104c8565b604051610197919061285f565b60405180910390f35b6101ba60048036038101906101b591906128b7565b61055a565b6040516101c79190612925565b60405180910390f35b6101ea60048036038101906101e5919061296c565b610576565b005b6101f461058c565b60405161020191906129bb565b60405180910390f35b610224600480360381019061021f91906129d6565b610596565b005b610240600480360381019061023b919061296c565b610698565b60405161024d91906129bb565b60405180910390f35b610270600480360381019061026b91906129d6565b6106c9565b005b61028c600480360381019061028791906128b7565b6106e9565b6040516102999190612925565b60405180910390f35b6102bc60048036038101906102b79190612a29565b6106fb565b6040516102c991906129bb565b60405180910390f35b6102da6107b5565b005b6102f660048036038101906102f19190612a82565b6107c9565b005b6103006108b2565b60405161030d9190612925565b60405180910390f35b610330600480360381019061032b9190612bf7565b6108dc565b60405161033d91906129bb565b60405180910390f35b61034e610b9b565b60405161035b919061285f565b60405180910390f35b61037e60048036038101906103799190612d55565b610c2d565b005b61039a60048036038101906103959190612e36565b610c43565b005b6103b660048036038101906103b191906128b7565b610c68565b6040516103ca989796959493929190612eb9565b60405180910390f35b6103ed60048036038101906103e891906128b7565b61105b565b6040516103fa919061285f565b60405180910390f35b61041d600480360381019061041891906128b7565b61106d565b604051610431989796959493929190612eb9565b60405180910390f35b610454600480360381019061044f9190612a29565b61136a565b6040516104619190613018565b60405180910390f35b610484600480360381019061047f919061303a565b611401565b60405161049191906127b4565b60405180910390f35b6104b460048036038101906104af9190612a29565b611495565b005b60006104c18261151b565b9050919050565b6060600080546104d7906130a9565b80601f0160208091040260200160405190810160405280929190818152602001828054610503906130a9565b80156105505780601f1061052557610100808354040283529160200191610550565b820191906000526020600020905b81548152906001019060200180831161053357829003601f168201915b5050505050905090565b60006105658261157c565b5061056f82611604565b9050919050565b6105888282610583611641565b611649565b5050565b6000600854905090565b600073ffffffffffffffffffffffffffffffffffffffff168273ffffffffffffffffffffffffffffffffffffffff16036106085760006040517f64a0ae920000000000000000000000000000000000000000000000000000000081526004016105ff9190612925565b60405180910390fd5b600061061c8383610617611641565b61165b565b90508373ffffffffffffffffffffffffffffffffffffffff168173ffffffffffffffffffffffffffffffffffffffff1614610692578382826040517f64283d7b000000000000000000000000000000000000000000000000000000008152600401610689939291906130da565b60405180910390fd5b50505050565b600a60205281600052604060002081815481106106b457600080fd5b90600052602060002001600091509150505481565b6106e483838360405180602001604052806000815250610c43565b505050565b60006106f48261157c565b9050919050565b60008073ffffffffffffffffffffffffffffffffffffffff168273ffffffffffffffffffffffffffffffffffffffff160361076e5760006040517f89c62b640000000000000000000000000000000000000000000000000000000081526004016107659190612925565b60405180910390fd5b600360008373ffffffffffffffffffffffffffffffffffffffff1673ffffffffffffffffffffffffffffffffffffffff168152602001908152602001600020549050919050565b6107bd611875565b6107c760006118fc565b565b6107d1611875565b600073ffffffffffffffffffffffffffffffffffffffff166107f2836119c2565b73ffffffffffffffffffffffffffffffffffffffff1603610848576040517f08c379a000000000000000000000000000000000000000000000000000000000815260040161083f9061315d565b60405180910390fd5b806009600084815260200190815260200160002060070160006101000a81548160ff021916908315150217905550817fc1e43064b91f66c91fd4a63b612a7c1620deba6fe84aaac4dfcbd7f456c6334d826040516108a691906127b4565b60405180910390a25050565b6000600760009054906101000a900473ffffffffffffffffffffffffffffffffffffffff16905090565b600080885111610921576040517f08c379a0000000000000000000000000000000000000000000000000000000008152600401610918906131c9565b60405180910390fd5b6000835111610965576040517f08c379a000000000000000000000000000000000000000000000000000000000815260040161095c90613235565b60405180910390fd5b6101908411156109aa576040517f08c379a00000000000000000000000000000000000000000000000000000000081526004016109a1906132a1565b60405180910390fd5b60006008549050600860008154809291906109c4906132f0565b91905055506109d38a826119ff565b6109dd8184611a1d565b6040518061010001604052808a815260200189815260200188815260200187815260200186815260200142815260200185815260200160001515815250600960008381526020019081526020016000206000820151816000019081610a4291906134e4565b506020820151816001019081610a5891906134e4565b506040820151816002019081610a6e91906134e4565b506060820151816003019081610a8491906134e4565b506080820151816004015560a0820151816005015560c0820151816006019081610aae91906134e4565b5060e08201518160070160006101000a81548160ff021916908315150217905550905050600a60008b73ffffffffffffffffffffffffffffffffffffffff1673ffffffffffffffffffffffffffffffffffffffff1681526020019081526020016000208190806001815401808255809150506001900390600052602060002001600090919091909150558973ffffffffffffffffffffffffffffffffffffffff16817fca8a0ac37d7cf6826ff9eab41651a3b89e6c39834d5d4bd485cc2b86ecad0f028b8742604051610b83939291906135b6565b60405180910390a38091505098975050505050505050565b606060018054610baa906130a9565b80601f0160208091040260200160405190810160405280929190818152602001828054610bd6906130a9565b8015610c235780601f10610bf857610100808354040283529160200191610c23565b820191906000526020600020905b815481529060010190602001808311610c0657829003601f168201915b5050505050905090565b610c3f610c38611641565b8383611a79565b5050565b610c4e848484610596565b610c62610c59611641565b85858585611be8565b50505050565b606080606080600080606060008073ffffffffffffffffffffffffffffffffffffffff16610c958a6119c2565b73ffffffffffffffffffffffffffffffffffffffff1603610ceb576040517f08c379a0000000000000000000000000000000000000000000000000000000008152600401610ce29061315d565b60405180910390fd5b6000600960008b815260200190815260200160002060405180610100016040529081600082018054610d1c906130a9565b80601f0160208091040260200160405190810160405280929190818152602001828054610d48906130a9565b8015610d955780601f10610d6a57610100808354040283529160200191610d95565b820191906000526020600020905b815481529060010190602001808311610d7857829003601f168201915b50505050508152602001600182018054610dae906130a9565b80601f0160208091040260200160405190810160405280929190818152602001828054610dda906130a9565b8015610e275780601f10610dfc57610100808354040283529160200191610e27565b820191906000526020600020905b815481529060010190602001808311610e0a57829003601f168201915b50505050508152602001600282018054610e40906130a9565b80601f0160208091040260200160405190810160405280929190818152602001828054610e6c906130a9565b8015610eb95780601f10610e8e57610100808354040283529160200191610eb9565b820191906000526020600020905b815481529060010190602001808311610e9c57829003601f168201915b50505050508152602001600382018054610ed2906130a9565b80601f0160208091040260200160405190810160405280929190818152602001828054610efe906130a9565b8015610f4b5780601f10610f2057610100808354040283529160200191610f4b565b820191906000526020600020905b815481529060010190602001808311610f2e57829003601f168201915b505050505081526020016004820154815260200160058201548152602001600682018054610f78906130a9565b80601f0160208091040260200160405190810160405280929190818152602001828054610fa4906130a9565b8015610ff15780601f10610fc657610100808354040283529160200191610ff1565b820191906000526020600020905b815481529060010190602001808311610fd457829003601f168201915b505050505081526020016007820160009054906101000a900460ff1615151515815250509050806000015181602001518260400151836060015184608001518560a001518660c001518760e001519850985098509850985098509850985050919395975091939597565b606061106682611d99565b9050919050565b6009602052806000526040600020600091509050806000018054611090906130a9565b80601f01602080910402602001604051908101604052809291908181526020018280546110bc906130a9565b80156111095780601f106110de57610100808354040283529160200191611109565b820191906000526020600020905b8154815290600101906020018083116110ec57829003601f168201915b50505050509080600101805461111e906130a9565b80601f016020809104026020016040519081016040528092919081815260200182805461114a906130a9565b80156111975780601f1061116c57610100808354040283529160200191611197565b820191906000526020600020905b81548152906001019060200180831161117a57829003601f168201915b5050505050908060020180546111ac906130a9565b80601f01602080910402602001604051908101604052809291908181526020018280546111d8906130a9565b80156112255780601f106111fa57610100808354040283529160200191611225565b820191906000526020600020905b81548152906001019060200180831161120857829003601f168201915b50505050509080600301805461123a906130a9565b80601f0160208091040260200160405190810160405280929190818152602001828054611266906130a9565b80156112b35780601f10611288576101008083540402835291602001916112b3565b820191906000526020600020905b81548152906001019060200180831161129657829003601f168201915b5050505050908060040154908060050154908060060180546112d4906130a9565b80601f0160208091040260200160405190810160405280929190818152602001828054611300906130a9565b801561134d5780601f106113225761010080835404028352916020019161134d565b820191906000526020600020905b81548152906001019060200180831161133057829003601f168201915b5050505050908060070160009054906101000a900460ff16905088565b6060600a60008373ffffffffffffffffffffffffffffffffffffffff1673ffffffffffffffffffffffffffffffffffffffff1681526020019081526020016000208054806020026020016040519081016040528092919081815260200182805480156113f557602002820191906000526020600020905b8154815260200190600101908083116113e1575b50505050509050919050565b6000600560008473ffffffffffffffffffffffffffffffffffffffff1673ffffffffffffffffffffffffffffffffffffffff16815260200190815260200160002060008373ffffffffffffffffffffffffffffffffffffffff1673ffffffffffffffffffffffffffffffffffffffff16815260200190815260200160002060009054906101000a900460ff16905092915050565b61149d611875565b600073ffffffffffffffffffffffffffffffffffffffff168173ffffffffffffffffffffffffffffffffffffffff160361150f5760006040517f1e4fbdf70000000000000000000000000000000000000000000000000000000081526004016115069190612925565b60405180910390fd5b611518816118fc565b50565b6000634906490660e01b7bffffffffffffffffffffffffffffffffffffffffffffffffffffffff1916827bffffffffffffffffffffffffffffffffffffffffffffffffffffffff19161480611575575061157482611eac565b5b9050919050565b600080611588836119c2565b9050600073ffffffffffffffffffffffffffffffffffffffff168173ffffffffffffffffffffffffffffffffffffffff16036115fb57826040517f7e2732890000000000000000000000000000000000000000000000000000000081526004016115f291906129bb565b60405180910390fd5b80915050919050565b60006004600083815260200190815260200160002060009054906101000a900473ffffffffffffffffffffffffffffffffffffffff169050919050565b600033905090565b6116568383836001611f8e565b505050565b600080611667846119c2565b9050600073ffffffffffffffffffffffffffffffffffffffff168373ffffffffffffffffffffffffffffffffffffffff16146116a9576116a8818486612153565b5b600073ffffffffffffffffffffffffffffffffffffffff168173ffffffffffffffffffffffffffffffffffffffff161461173a576116eb600085600080611f8e565b6001600360008373ffffffffffffffffffffffffffffffffffffffff1673ffffffffffffffffffffffffffffffffffffffff168152602001908152602001600020600082825403925050819055505b600073ffffffffffffffffffffffffffffffffffffffff168573ffffffffffffffffffffffffffffffffffffffff16146117bd576001600360008773ffffffffffffffffffffffffffffffffffffffff1673ffffffffffffffffffffffffffffffffffffffff168152602001908152602001600020600082825401925050819055505b846002600086815260200190815260200160002060006101000a81548173ffffffffffffffffffffffffffffffffffffffff021916908373ffffffffffffffffffffffffffffffffffffffff160217905550838573ffffffffffffffffffffffffffffffffffffffff168273ffffffffffffffffffffffffffffffffffffffff167fddf252ad1be2c89b69c2b068fc378daa952ba7f163c4a11628f55a4df523b3ef60405160405180910390a4809150509392505050565b61187d611641565b73ffffffffffffffffffffffffffffffffffffffff1661189b6108b2565b73ffffffffffffffffffffffffffffffffffffffff16146118fa576118be611641565b6040517f118cdaa70000000000000000000000000000000000000000000000000000000081526004016118f19190612925565b60405180910390fd5b565b6000600760009054906101000a900473ffffffffffffffffffffffffffffffffffffffff16905081600760006101000a81548173ffffffffffffffffffffffffffffffffffffffff021916908373ffffffffffffffffffffffffffffffffffffffff1602179055508173ffffffffffffffffffffffffffffffffffffffff168173ffffffffffffffffffffffffffffffffffffffff167f8be0079c531659141344cd1fd0a4f28419497f9722a3daafe3b4186f6b6457e060405160405180910390a35050565b60006002600083815260200190815260200160002060009054906101000a900473ffffffffffffffffffffffffffffffffffffffff169050919050565b611a19828260405180602001604052806000815250612217565b5050565b80600660008481526020019081526020016000209081611a3d91906134e4565b507ff8e1a15aba9398e019f0b49df1a4fde98ee17ae345cb5f6b5e2c27f5033e8ce782604051611a6d91906129bb565b60405180910390a15050565b600073ffffffffffffffffffffffffffffffffffffffff168273ffffffffffffffffffffffffffffffffffffffff1603611aea57816040517f5b08ba18000000000000000000000000000000000000000000000000000000008152600401611ae19190612925565b60405180910390fd5b80600560008573ffffffffffffffffffffffffffffffffffffffff1673ffffffffffffffffffffffffffffffffffffffff16815260200190815260200160002060008473ffffffffffffffffffffffffffffffffffffffff1673ffffffffffffffffffffffffffffffffffffffff16815260200190815260200160002060006101000a81548160ff0219169083151502179055508173ffffffffffffffffffffffffffffffffffffffff168373ffffffffffffffffffffffffffffffffffffffff167f17307eab39ab6107e8899845ad3d59bd9653f200f220920489ca2b5937696c3183604051611bdb91906127b4565b60405180910390a3505050565b60008373ffffffffffffffffffffffffffffffffffffffff163b1115611d92578273ffffffffffffffffffffffffffffffffffffffff1663150b7a02868685856040518563ffffffff1660e01b8152600401611c479493929190613650565b6020604051808303816000875af1925050508015611c8357506040513d601f19601f82011682018060405250810190611c8091906136b1565b60015b611d07573d8060008114611cb3576040519150601f19603f3d011682016040523d82523d6000602084013e611cb8565b606091505b506000815103611cff57836040517f64a0ae92000000000000000000000000000000000000000000000000000000008152600401611cf69190612925565b60405180910390fd5b805160208201fd5b63150b7a0260e01b7bffffffffffffffffffffffffffffffffffffffffffffffffffffffff1916817bffffffffffffffffffffffffffffffffffffffffffffffffffffffff191614611d9057836040517f64a0ae92000000000000000000000000000000000000000000000000000000008152600401611d879190612925565b60405180910390fd5b505b5050505050565b6060611da48261157c565b506000600660008481526020019081526020016000208054611dc5906130a9565b80601f0160208091040260200160405190810160405280929190818152602001828054611df1906130a9565b8015611e3e5780601f10611e1357610100808354040283529160200191611e3e565b820191906000526020600020905b815481529060010190602001808311611e2157829003601f168201915b505050505090506000611e4f61223b565b90506000815103611e64578192505050611ea7565b600082511115611e99578082604051602001611e8192919061371a565b60405160208183030381529060405292505050611ea7565b611ea284612252565b925050505b919050565b60007f80ac58cd000000000000000000000000000000000000000000000000000000007bffffffffffffffffffffffffffffffffffffffffffffffffffffffff1916827bffffffffffffffffffffffffffffffffffffffffffffffffffffffff19161480611f7757507f5b5e139f000000000000000000000000000000000000000000000000000000007bffffffffffffffffffffffffffffffffffffffffffffffffffffffff1916827bffffffffffffffffffffffffffffffffffffffffffffffffffffffff1916145b80611f875750611f86826122bb565b5b9050919050565b8080611fc75750600073ffffffffffffffffffffffffffffffffffffffff168273ffffffffffffffffffffffffffffffffffffffff1614155b156120fb576000611fd78461157c565b9050600073ffffffffffffffffffffffffffffffffffffffff168373ffffffffffffffffffffffffffffffffffffffff161415801561204257508273ffffffffffffffffffffffffffffffffffffffff168173ffffffffffffffffffffffffffffffffffffffff1614155b801561205557506120538184611401565b155b1561209757826040517fa9fbf51f00000000000000000000000000000000000000000000000000000000815260040161208e9190612925565b60405180910390fd5b81156120f957838573ffffffffffffffffffffffffffffffffffffffff168273ffffffffffffffffffffffffffffffffffffffff167f8c5be1e5ebec7d5bd14f71427d1e84f3dd0314c0f7b2291e5b200ac8c7c3b92560405160405180910390a45b505b836004600085815260200190815260200160002060006101000a81548173ffffffffffffffffffffffffffffffffffffffff021916908373ffffffffffffffffffffffffffffffffffffffff16021790555050505050565b61215e838383612325565b61221257600073ffffffffffffffffffffffffffffffffffffffff168373ffffffffffffffffffffffffffffffffffffffff16036121d357806040517f7e2732890000000000000000000000000000000000000000000000000000000081526004016121ca91906129bb565b60405180910390fd5b81816040517f177e802f00000000000000000000000000000000000000000000000000000000815260040161220992919061373e565b60405180910390fd5b505050565b61222183836123e6565b61223661222c611641565b6000858585611be8565b505050565b606060405180602001604052806000815250905090565b606061225d8261157c565b50600061226861223b565b9050600081511161228857604051806020016040528060008152506122b3565b80612292846124df565b6040516020016122a392919061371a565b6040516020818303038152906040525b915050919050565b60007f01ffc9a7000000000000000000000000000000000000000000000000000000007bffffffffffffffffffffffffffffffffffffffffffffffffffffffff1916827bffffffffffffffffffffffffffffffffffffffffffffffffffffffff1916149050919050565b60008073ffffffffffffffffffffffffffffffffffffffff168373ffffffffffffffffffffffffffffffffffffffff16141580156123dd57508273ffffffffffffffffffffffffffffffffffffffff168473ffffffffffffffffffffffffffffffffffffffff16148061239e575061239d8484611401565b5b806123dc57508273ffffffffffffffffffffffffffffffffffffffff166123c483611604565b73ffffffffffffffffffffffffffffffffffffffff16145b5b90509392505050565b600073ffffffffffffffffffffffffffffffffffffffff168273ffffffffffffffffffffffffffffffffffffffff16036124585760006040517f64a0ae9200000000000000000000000000000000000000000000000000000000815260040161244f9190612925565b60405180910390fd5b60006124668383600061165b565b9050600073ffffffffffffffffffffffffffffffffffffffff168173ffffffffffffffffffffffffffffffffffffffff16146124da5760006040517f73c6ac6e0000000000000000000000000000000000000000000000000000000081526004016124d19190612925565b60405180910390fd5b505050565b6060600060016124ee846125ad565b01905060008167ffffffffffffffff81111561250d5761250c612acc565b5b6040519080825280601f01601f19166020018201604052801561253f5781602001600182028036833780820191505090505b509050600082602083010190505b6001156125a2578080600190039150507f3031323334353637383961626364656600000000000000000000000000000000600a86061a8153600a858161259657612595613767565b5b0494506000850361254d575b819350505050919050565b600080600090507a184f03e93ff9f4daa797ed6e38ed64bf6a1f010000000000000000831061260b577a184f03e93ff9f4daa797ed6e38ed64bf6a1f010000000000000000838161260157612600613767565b5b0492506040810190505b6d04ee2d6d415b85acef81000000008310612648576d04ee2d6d415b85acef8100000000838161263e5761263d613767565b5b0492506020810190505b662386f26fc10000831061267757662386f26fc10000838161266d5761266c613767565b5b0492506010810190505b6305f5e10083106126a0576305f5e100838161269657612695613767565b5b0492506008810190505b61271083106126c55761271083816126bb576126ba613767565b5b0492506004810190505b606483106126e857606483816126de576126dd613767565b5b0492506002810190505b600a83106126f7576001810190505b80915050919050565b6000604051905090565b600080fd5b600080fd5b60007fffffffff0000000000000000000000000000000000000000000000000000000082169050919050565b61274981612714565b811461275457600080fd5b50565b60008135905061276681612740565b92915050565b6000602082840312156127825761278161270a565b5b600061279084828501612757565b91505092915050565b60008115159050919050565b6127ae81612799565b82525050565b60006020820190506127c960008301846127a5565b92915050565b600081519050919050565b600082825260208201905092915050565b60005b838110156128095780820151818401526020810190506127ee565b60008484015250505050565b6000601f19601f8301169050919050565b6000612831826127cf565b61283b81856127da565b935061284b8185602086016127eb565b61285481612815565b840191505092915050565b600060208201905081810360008301526128798184612826565b905092915050565b6000819050919050565b61289481612881565b811461289f57600080fd5b50565b6000813590506128b18161288b565b92915050565b6000602082840312156128cd576128cc61270a565b5b60006128db848285016128a2565b91505092915050565b600073ffffffffffffffffffffffffffffffffffffffff82169050919050565b600061290f826128e4565b9050919050565b61291f81612904565b82525050565b600060208201905061293a6000830184612916565b92915050565b61294981612904565b811461295457600080fd5b50565b60008135905061296681612940565b92915050565b600080604083850312156129835761298261270a565b5b600061299185828601612957565b92505060206129a2858286016128a2565b9150509250929050565b6129b581612881565b82525050565b60006020820190506129d060008301846129ac565b92915050565b6000806000606084860312156129ef576129ee61270a565b5b60006129fd86828701612957565b9350506020612a0e86828701612957565b9250506040612a1f868287016128a2565b9150509250925092565b600060208284031215612a3f57612a3e61270a565b5b6000612a4d84828501612957565b91505092915050565b612a5f81612799565b8114612a6a57600080fd5b50565b600081359050612a7c81612a56565b92915050565b60008060408385031215612a9957612a9861270a565b5b6000612aa7858286016128a2565b9250506020612ab885828601612a6d565b9150509250929050565b600080fd5b600080fd5b7f4e487b7100000000000000000000000000000000000000000000000000000000600052604160045260246000fd5b612b0482612815565b810181811067ffffffffffffffff82111715612b2357612b22612acc565b5b80604052505050565b6000612b36612700565b9050612b428282612afb565b919050565b600067ffffffffffffffff821115612b6257612b61612acc565b5b612b6b82612815565b9050602081019050919050565b82818337600083830152505050565b6000612b9a612b9584612b47565b612b2c565b905082815260208101848484011115612bb657612bb5612ac7565b5b612bc1848285612b78565b509392505050565b600082601f830112612bde57612bdd612ac2565b5b8135612bee848260208601612b87565b91505092915050565b600080600080600080600080610100898b031215612c1857612c1761270a565b5b6000612c268b828c01612957565b985050602089013567ffffffffffffffff811115612c4757612c4661270f565b5b612c538b828c01612bc9565b975050604089013567ffffffffffffffff811115612c7457612c7361270f565b5b612c808b828c01612bc9565b965050606089013567ffffffffffffffff811115612ca157612ca061270f565b5b612cad8b828c01612bc9565b955050608089013567ffffffffffffffff811115612cce57612ccd61270f565b5b612cda8b828c01612bc9565b94505060a0612ceb8b828c016128a2565b93505060c089013567ffffffffffffffff811115612d0c57612d0b61270f565b5b612d188b828c01612bc9565b92505060e089013567ffffffffffffffff811115612d3957612d3861270f565b5b612d458b828c01612bc9565b9150509295985092959890939650565b60008060408385031215612d6c57612d6b61270a565b5b6000612d7a85828601612957565b9250506020612d8b85828601612a6d565b9150509250929050565b600067ffffffffffffffff821115612db057612daf612acc565b5b612db982612815565b9050602081019050919050565b6000612dd9612dd484612d95565b612b2c565b905082815260208101848484011115612df557612df4612ac7565b5b612e00848285612b78565b509392505050565b600082601f830112612e1d57612e1c612ac2565b5b8135612e2d848260208601612dc6565b91505092915050565b60008060008060808587031215612e5057612e4f61270a565b5b6000612e5e87828801612957565b9450506020612e6f87828801612957565b9350506040612e80878288016128a2565b925050606085013567ffffffffffffffff811115612ea157612ea061270f565b5b612ead87828801612e08565b91505092959194509250565b6000610100820190508181036000830152612ed4818b612826565b90508181036020830152612ee8818a612826565b90508181036040830152612efc8189612826565b90508181036060830152612f108188612826565b9050612f1f60808301876129ac565b612f2c60a08301866129ac565b81810360c0830152612f3e8185612826565b9050612f4d60e08301846127a5565b9998505050505050505050565b600081519050919050565b600082825260208201905092915050565b6000819050602082019050919050565b612f8f81612881565b82525050565b6000612fa18383612f86565b60208301905092915050565b6000602082019050919050565b6000612fc582612f5a565b612fcf8185612f65565b9350612fda83612f76565b8060005b8381101561300b578151612ff28882612f95565b9750612ffd83612fad565b925050600181019050612fde565b5085935050505092915050565b600060208201905081810360008301526130328184612fba565b905092915050565b600080604083850312156130515761305061270a565b5b600061305f85828601612957565b925050602061307085828601612957565b9150509250929050565b7f4e487b7100000000000000000000000000000000000000000000000000000000600052602260045260246000fd5b600060028204905060018216806130c157607f821691505b6020821081036130d4576130d361307a565b5b50919050565b60006060820190506130ef6000830186612916565b6130fc60208301856129ac565b6131096040830184612916565b949350505050565b7f546f6b656e20646f6573206e6f74206578697374000000000000000000000000600082015250565b60006131476014836127da565b915061315282613111565b602082019050919050565b600060208201905081810360008301526131768161313a565b9050919050565b7f53747564656e74206e616d652072657175697265640000000000000000000000600082015250565b60006131b36015836127da565b91506131be8261317d565b602082019050919050565b600060208201905081810360008301526131e2816131a6565b9050919050565b7f4950465320686173682072657175697265640000000000000000000000000000600082015250565b600061321f6012836127da565b915061322a826131e9565b602082019050919050565b6000602082019050818103600083015261324e81613212565b9050919050565b7f496e76616c696420475041000000000000000000000000000000000000000000600082015250565b600061328b600b836127da565b915061329682613255565b602082019050919050565b600060208201905081810360008301526132ba8161327e565b9050919050565b7f4e487b7100000000000000000000000000000000000000000000000000000000600052601160045260246000fd5b60006132fb82612881565b91507fffffffffffffffffffffffffffffffffffffffffffffffffffffffffffffffff820361332d5761332c6132c1565b5b600182019050919050565b60008190508160005260206000209050919050565b60006020601f8301049050919050565b600082821b905092915050565b60006008830261339a7fffffffffffffffffffffffffffffffffffffffffffffffffffffffffffffffff8261335d565b6133a4868361335d565b95508019841693508086168417925050509392505050565b6000819050919050565b60006133e16133dc6133d784612881565b6133bc565b612881565b9050919050565b6000819050919050565b6133fb836133c6565b61340f613407826133e8565b84845461336a565b825550505050565b600090565b613424613417565b61342f8184846133f2565b505050565b5b818110156134535761344860008261341c565b600181019050613435565b5050565b601f8211156134985761346981613338565b6134728461334d565b81016020851015613481578190505b61349561348d8561334d565b830182613434565b50505b505050565b600082821c905092915050565b60006134bb6000198460080261349d565b1980831691505092915050565b60006134d483836134aa565b9150826002028217905092915050565b6134ed826127cf565b67ffffffffffffffff81111561350657613505612acc565b5b61351082546130a9565b61351b828285613457565b600060209050601f83116001811461354e576000841561353c578287015190505b61354685826134c8565b8655506135ae565b601f19841661355c86613338565b60005b828110156135845784890151825560018201915060208501945060208101905061355f565b868310156135a1578489015161359d601f8916826134aa565b8355505b6001600288020188555050505b505050505050565b600060608201905081810360008301526135d08186612826565b905081810360208301526135e48185612826565b90506135f360408301846129ac565b949350505050565b600081519050919050565b600082825260208201905092915050565b6000613622826135fb565b61362c8185613606565b935061363c8185602086016127eb565b61364581612815565b840191505092915050565b60006080820190506136656000830187612916565b6136726020830186612916565b61367f60408301856129ac565b81810360608301526136918184613617565b905095945050505050565b6000815190506136ab81612740565b92915050565b6000602082840312156136c7576136c661270a565b5b60006136d58482850161369c565b91505092915050565b600081905092915050565b60006136f4826127cf565b6136fe81856136de565b935061370e8185602086016127eb565b80840191505092915050565b600061372682856136e9565b915061373282846136e9565b91508190509392505050565b60006040820190506137536000830185612916565b61376060208301846129ac565b9392505050565b7f4e487b7100000000000000000000000000000000000000000000000000000000600052601260045260246000fdfea2646970667358221220f57ccff510f6ee9e5d4c808e342d93ff5485fd2bbafcb47201a701ebd92fd66e64736f6c63430008140033",
  "linkReferences": {},
  "deployedLinkReferences": {}
}