{
  "_format": "hh-sol-artifact-1",
  "contractName": "PointToken",
  "sourceName": "contracts/PointToken.sol",
  "abi": [
    {
      "inputs": [
        {
          "internalType": "address",
          "name": "_pzoToken",
          "type": "address"
        }
      ],
      "stateMutability": "nonpayable",
      "type": "constructor"
    },
    {
      "inputs": [
        {
          "internalType": "address",
          "name": "spender",
          "type": "address"
        },
        {
          "internalType": "uint256",
          "name": "allowance",
          "type": "uint256"
        },
        {
          "internalType": "uint256",
          "name": "needed",
          "type": "uint256"
        }
      ],
      "name": "ERC20InsufficientAllowance",
      "type": "error"
    },
    {
      "inputs": [
        {
          "internalType": "address",
          "name": "sender",
          "type": "address"
        },
        {
          "internalType": "uint256",
          "name": "balance",
          "type": "uint256"
        },
        {
          "internalType": "uint256",
          "name": "needed",
          "type": "uint256"
        }
      ],
      "name": "ERC20InsufficientBalance",
      "type": "error"
    },
    {
      "inputs": [
        {
          "internalType": "address",
          "name": "approver",
          "type": "address"
        }
      ],
      "name": "ERC20InvalidApprover",
      "type": "error"
    },
    {
      "inputs": [
        {
          "internalType": "address",
          "name": "receiver",
          "type": "address"
        }
      ],
      "name": "ERC20InvalidReceiver",
      "type": "error"
    },
    {
      "inputs": [
        {
          "internalType": "address",
          "name": "sender",
          "type": "address"
        }
      ],
      "name": "ERC20InvalidSender",
      "type": "error"
    },
    {
      "inputs": [
        {
          "internalType": "address",
          "name": "spender",
          "type": "address"
        }
      ],
      "name": "ERC20InvalidSpender",
      "type": "error"
    },
    {
      "inputs": [
        {
          "internalType": "address",
          "name": "owner",
          "type": "address"
        }
      ],
      "name": "OwnableInvalidOwner",
      "type": "error"
    },
    {
      "inputs": [
        {
          "internalType": "address",
          "name": "account",
          "type": "address"
        }
      ],
      "name": "OwnableUnauthorizedAccount",
      "type": "error"
    },
    {
      "anonymous": false,
      "inputs": [
        {
          "indexed": true,
          "internalType": "address",
          "name": "owner",
          "type": "address"
        },
        {
          "indexed": true,
          "internalType": "address",
          "name": "spender",
          "type": "address"
        },
        {
          "indexed": false,
          "internalType": "uint256",
          "name": "value",
          "type": "uint256"
        }
      ],
      "name": "Approval",
      "type": "event"
    },
    {
      "anonymous": false,
      "inputs": [
        {
          "indexed": true,
          "internalType": "address",
          "name": "previousOwner",
          "type": "address"
        },
        {
          "indexed": true,
          "internalType": "address",
          "name": "newOwner",
          "type": "address"
        }
      ],
      "name": "OwnershipTransferred",
      "type": "event"
    },
    {
      "anonymous": false,
      "inputs": [
        {
          "indexed": true,
          "internalType": "address",
          "name": "user",
          "type": "address"
        },
        {
          "indexed": false,
          "internalType": "uint256",
          "name": "pzoAmount",
          "type": "uint256"
        },
        {
          "indexed": false,
          "internalType": "uint256",
          "name": "pointAmount",
          "type": "uint256"
        }
      ],
      "name": "PointsExchanged",
      "type": "event"
    },
    {
      "anonymous": false,
      "inputs": [
        {
          "indexed": true,
          "internalType": "address",
          "name": "user",
          "type": "address"
        },
        {
          "indexed": false,
          "internalType": "uint256",
          "name": "pointAmount",
          "type": "uint256"
        },
        {
          "indexed": false,
          "internalType": "uint256",
          "name": "pzoAmount",
          "type": "uint256"
        }
      ],
      "name": "PointsWithdrawn",
      "type": "event"
    },
    {
      "anonymous": false,
      "inputs": [
        {
          "indexed": true,
          "internalType": "address",
          "name": "from",
          "type": "address"
        },
        {
          "indexed": true,
          "internalType": "address",
          "name": "to",
          "type": "address"
        },
        {
          "indexed": false,
          "internalType": "uint256",
          "name": "value",
          "type": "uint256"
        }
      ],
      "name": "Transfer",
      "type": "event"
    },
    {
      "inputs": [],
      "name": "EXCHANGE_RATE",
      "outputs": [
        {
          "internalType": "uint256",
          "name": "",
          "type": "uint256"
        }
      ],
      "stateMutability": "view",
      "type": "function"
    },
    {
      "inputs": [],
      "name": "POINT_DECIMALS",
      "outputs": [
        {
          "internalType": "uint256",
          "name": "",
          "type": "uint256"
        }
      ],
      "stateMutability": "view",
      "type": "function"
    },
    {
      "inputs": [],
      "name": "PZO_DECIMALS",
      "outputs": [
        {
          "internalType": "uint256",
          "name": "",
          "type": "uint256"
        }
      ],
      "stateMutability": "view",
      "type": "function"
    },
    {
      "inputs": [
        {
          "internalType": "address",
          "name": "owner",
          "type": "address"
        },
        {
          "internalType": "address",
          "name": "spender",
          "type": "address"
        }
      ],
      "name": "allowance",
      "outputs": [
        {
          "internalType": "uint256",
          "name": "",
          "type": "uint256"
        }
      ],
      "stateMutability": "view",
      "type": "function"
    },
    {
      "inputs": [
        {
          "internalType": "address",
          "name": "spender",
          "type": "address"
        },
        {
          "internalType": "uint256",
          "name": "value",
          "type": "uint256"
        }
      ],
      "name": "approve",
      "outputs": [
        {
          "internalType": "bool",
          "name": "",
          "type": "bool"
        }
      ],
      "stateMutability": "nonpayable",
      "type": "function"
    },
    {
      "inputs": [
        {
          "internalType": "address",
          "name": "account",
          "type": "address"
        }
      ],
      "name": "balanceOf",
      "outputs": [
        {
          "internalType": "uint256",
          "name": "",
          "type": "uint256"
        }
      ],
      "stateMutability": "view",
      "type": "function"
    },
    {
      "inputs": [
        {
          "internalType": "uint256",
          "name": "pointAmount",
          "type": "uint256"
        }
      ],
      "name": "calculatePZOFromPoints",
      "outputs": [
        {
          "internalType": "uint256",
          "name": "",
          "type": "uint256"
        }
      ],
      "stateMutability": "pure",
      "type": "function"
    },
    {
      "inputs": [
        {
          "internalType": "uint256",
          "name": "pzoAmount",
          "type": "uint256"
        }
      ],
      "name": "calculatePointsFromPZO",
      "outputs": [
        {
          "internalType": "uint256",
          "name": "",
          "type": "uint256"
        }
      ],
      "stateMutability": "pure",
      "type": "function"
    },
    {
      "inputs": [],
      "name": "decimals",
      "outputs": [
        {
          "internalType": "uint8",
          "name": "",
          "type": "uint8"
        }
      ],
      "stateMutability": "view",
      "type": "function"
    },
    {
      "inputs": [
        {
          "internalType": "uint256",
          "name": "pzoAmount",
          "type": "uint256"
        }
      ],
      "name": "exchangePZOToPoints",
      "outputs": [],
      "stateMutability": "nonpayable",
      "type": "function"
    },
    {
      "inputs": [],
      "name": "getExchangeInfo",
      "outputs": [
        {
          "internalType": "uint256",
          "name": "rate",
          "type": "uint256"
        },
        {
          "internalType": "uint256",
          "name": "pzoDecimals",
          "type": "uint256"
        },
        {
          "internalType": "uint256",
          "name": "pointDecimals",
          "type": "uint256"
        }
      ],
      "stateMutability": "view",
      "type": "function"
    },
    {
      "inputs": [],
      "name": "name",
      "outputs": [
        {
          "internalType": "string",
          "name": "",
          "type": "string"
        }
      ],
      "stateMutability": "view",
      "type": "function"
    },
    {
      "inputs": [],
      "name": "owner",
      "outputs": [
        {
          "internalType": "address",
          "name": "",
          "type": "address"
        }
      ],
      "stateMutability": "view",
      "type": "function"
    },
    {
      "inputs": [],
      "name": "pzoToken",
      "outputs": [
        {
          "internalType": "address",
          "name": "",
          "type": "address"
        }
      ],
      "stateMutability": "view",
      "type": "function"
    },
    {
      "inputs": [],
      "name": "renounceOwnership",
      "outputs": [],
      "stateMutability": "nonpayable",
      "type": "function"
    },
    {
      "inputs": [],
      "name": "symbol",
      "outputs": [
        {
          "internalType": "string",
          "name": "",
          "type": "string"
        }
      ],
      "stateMutability": "view",
      "type": "function"
    },
    {
      "inputs": [],
      "name": "totalSupply",
      "outputs": [
        {
          "internalType": "uint256",
          "name": "",
          "type": "uint256"
        }
      ],
      "stateMutability": "view",
      "type": "function"
    },
    {
      "inputs": [
        {
          "internalType": "address",
          "name": "to",
          "type": "address"
        },
        {
          "internalType": "uint256",
          "name": "value",
          "type": "uint256"
        }
      ],
      "name": "transfer",
      "outputs": [
        {
          "internalType": "bool",
          "name": "",
          "type": "bool"
        }
      ],
      "stateMutability": "nonpayable",
      "type": "function"
    },
    {
      "inputs": [
        {
          "internalType": "address",
          "name": "from",
          "type": "address"
        },
        {
          "internalType": "address",
          "name": "to",
          "type": "address"
        },
        {
          "internalType": "uint256",
          "name": "value",
          "type": "uint256"
        }
      ],
      "name": "transferFrom",
      "outputs": [
        {
          "internalType": "bool",
          "name": "",
          "type": "bool"
        }
      ],
      "stateMutability": "nonpayable",
      "type": "function"
    },
    {
      "inputs": [
        {
          "internalType": "address",
          "name": "newOwner",
          "type": "address"
        }
      ],
      "name": "transferOwnership",
      "outputs": [],
      "stateMutability": "nonpayable",
      "type": "function"
    },
    {
      "inputs": [
        {
          "internalType": "uint256",
          "name": "pointAmount",
          "type": "uint256"
        }
      ],
      "name": "withdrawPointsToPZO",
      "outputs": [],
      "stateMutability": "nonpayable",
      "type": "function"
    }
  ],
  "bytecode": "0x60806040523480156200001157600080fd5b506040516200230c3803806200230c8339818101604052810190620000379190620002c9565b336040518060400160405280601081526020017f45647557616c6c657420506f696e7473000000000000000000000000000000008152506040518060400160405280600581526020017f504f494e540000000000000000000000000000000000000000000000000000008152508160039081620000b5919062000575565b508060049081620000c7919062000575565b505050600073ffffffffffffffffffffffffffffffffffffffff168173ffffffffffffffffffffffffffffffffffffffff16036200013f5760006040517f1e4fbdf70000000000000000000000000000000000000000000000000000000081526004016200013691906200066d565b60405180910390fd5b62000150816200019960201b60201c565b5080600660006101000a81548173ffffffffffffffffffffffffffffffffffffffff021916908373ffffffffffffffffffffffffffffffffffffffff160217905550506200068a565b6000600560009054906101000a900473ffffffffffffffffffffffffffffffffffffffff16905081600560006101000a81548173ffffffffffffffffffffffffffffffffffffffff021916908373ffffffffffffffffffffffffffffffffffffffff1602179055508173ffffffffffffffffffffffffffffffffffffffff168173ffffffffffffffffffffffffffffffffffffffff167f8be0079c531659141344cd1fd0a4f28419497f9722a3daafe3b4186f6b6457e060405160405180910390a35050565b600080fd5b600073ffffffffffffffffffffffffffffffffffffffff82169050919050565b6000620002918262000264565b9050919050565b620002a38162000284565b8114620002af57600080fd5b50565b600081519050620002c38162000298565b92915050565b600060208284031215620002e257620002e16200025f565b5b6000620002f284828501620002b2565b91505092915050565b600081519050919050565b7f4e487b7100000000000000000000000000000000000000000000000000000000600052604160045260246000fd5b7f4e487b7100000000000000000000000000000000000000000000000000000000600052602260045260246000fd5b600060028204905060018216806200037d57607f821691505b60208210810362000393576200039262000335565b5b50919050565b60008190508160005260206000209050919050565b60006020601f8301049050919050565b600082821b905092915050565b600060088302620003fd7fffffffffffffffffffffffffffffffffffffffffffffffffffffffffffffffff82620003be565b620004098683620003be565b95508019841693508086168417925050509392505050565b6000819050919050565b6000819050919050565b600062000456620004506200044a8462000421565b6200042b565b62000421565b9050919050565b6000819050919050565b620004728362000435565b6200048a62000481826200045d565b848454620003cb565b825550505050565b600090565b620004a162000492565b620004ae81848462000467565b505050565b5b81811015620004d657620004ca60008262000497565b600181019050620004b4565b5050565b601f8211156200052557620004ef8162000399565b620004fa84620003ae565b810160208510156200050a578190505b620005226200051985620003ae565b830182620004b3565b50505b505050565b600082821c905092915050565b60006200054a600019846008026200052a565b1980831691505092915050565b600062000565838362000537565b9150826002028217905092915050565b6200058082620002fb565b67ffffffffffffffff8111156200059c576200059b62000306565b5b620005a8825462000364565b620005b5828285620004da565b600060209050601f831160018114620005ed5760008415620005d8578287015190505b620005e4858262000557565b86555062000654565b601f198416620005fd8662000399565b60005b82811015620006275784890151825560018201915060208501945060208101905062000600565b8683101562000647578489015162000643601f89168262000537565b8355505b6001600288020188555050505b505050505050565b620006678162000284565b82525050565b60006020820190506200068460008301846200065c565b92915050565b611c72806200069a6000396000f3fe608060405234801561001057600080fd5b50600436106101375760003560e01c806370a08231116100b8578063a9059cbb1161007c578063a9059cbb14610320578063b097570b14610350578063b6a918f214610380578063dd62ed3e1461039c578063f2fde38b146103cc578063f7c773e8146103e857610137565b806370a082311461028a578063715018a6146102ba5780638bc5b3c5146102c45780638da5cb5b146102e457806395d89b411461030257610137565b806323b872dd116100ff57806323b872dd146101e45780632b0f551814610214578063313ce567146102325780633953b24c146102505780633f053fed1461026e57610137565b8063060c2d761461013c57806306fdde031461015a578063095ea7b31461017857806314a8bd0d146101a857806318160ddd146101c6575b600080fd5b610144610418565b6040516101519190611359565b60405180910390f35b61016261041d565b60405161016f9190611404565b60405180910390f35b610192600480360381019061018d91906114b5565b6104af565b60405161019f9190611510565b60405180910390f35b6101b06104d2565b6040516101bd9190611359565b60405180910390f35b6101ce6104d7565b6040516101db9190611359565b60405180910390f35b6101fe60048036038101906101f9919061152b565b6104e1565b60405161020b9190611510565b60405180910390f35b61021c610510565b6040516102299190611359565b60405180910390f35b61023a610515565b604051610247919061159a565b60405180910390f35b61025861051e565b60405161026591906115c4565b60405180910390f35b610288600480360381019061028391906115df565b610544565b005b6102a4600480360381019061029f919061160c565b6106e1565b6040516102b19190611359565b60405180910390f35b6102c2610729565b005b6102cc61073d565b6040516102db93929190611639565b60405180910390f35b6102ec610752565b6040516102f991906115c4565b60405180910390f35b61030a61077c565b6040516103179190611404565b60405180910390f35b61033a600480360381019061033591906114b5565b61080e565b6040516103479190611510565b60405180910390f35b61036a600480360381019061036591906115df565b610831565b6040516103779190611359565b60405180910390f35b61039a600480360381019061039591906115df565b61085f565b005b6103b660048036038101906103b19190611670565b610a15565b6040516103c39190611359565b60405180910390f35b6103e660048036038101906103e1919061160c565b610a9c565b005b61040260048036038101906103fd91906115df565b610b22565b60405161040f9190611359565b60405180910390f35b601281565b60606003805461042c906116df565b80601f0160208091040260200160405190810160405280929190818152602001828054610458906116df565b80156104a55780601f1061047a576101008083540402835291602001916104a5565b820191906000526020600020905b81548152906001019060200180831161048857829003601f168201915b5050505050905090565b6000806104ba610b50565b90506104c7818585610b58565b600191505092915050565b606481565b6000600254905090565b6000806104ec610b50565b90506104f9858285610b6a565b610504858585610bff565b60019150509392505050565b601281565b60006012905090565b600660009054906101000a900473ffffffffffffffffffffffffffffffffffffffff1681565b60008111610587576040517f08c379a000000000000000000000000000000000000000000000000000000000815260040161057e90611782565b60405180910390fd5b60006012600a6105979190611904565b6064836105a4919061194f565b6105ae91906119c0565b9050600660009054906101000a900473ffffffffffffffffffffffffffffffffffffffff1673ffffffffffffffffffffffffffffffffffffffff166323b872dd3330856040518463ffffffff1660e01b815260040161060f939291906119f1565b6020604051808303816000875af115801561062e573d6000803e3d6000fd5b505050506040513d601f19601f820116820180604052508101906106529190611a54565b50610675336012600a6106659190611904565b83610670919061194f565b610cf3565b3373ffffffffffffffffffffffffffffffffffffffff167ffe5afbc6767cd9a9d720adc8f98d515579c8eba66ad45e4f42f88324fb260d65836012600a6106bc9190611904565b846106c7919061194f565b6040516106d5929190611a81565b60405180910390a25050565b60008060008373ffffffffffffffffffffffffffffffffffffffff1673ffffffffffffffffffffffffffffffffffffffff168152602001908152602001600020549050919050565b610731610d75565b61073b6000610dfc565b565b60008060006064601280925092509250909192565b6000600560009054906101000a900473ffffffffffffffffffffffffffffffffffffffff16905090565b60606004805461078b906116df565b80601f01602080910402602001604051908101604052809291908181526020018280546107b7906116df565b80156108045780601f106107d957610100808354040283529160200191610804565b820191906000526020600020905b8154815290600101906020018083116107e757829003601f168201915b5050505050905090565b600080610819610b50565b9050610826818585610bff565b600191505092915050565b600060646012600a6108439190611904565b8361084e919061194f565b61085891906119c0565b9050919050565b600081116108a2576040517f08c379a000000000000000000000000000000000000000000000000000000000815260040161089990611b1c565b60405180910390fd5b806108ac336106e1565b10156108ed576040517f08c379a00000000000000000000000000000000000000000000000000000000081526004016108e490611b88565b60405180910390fd5b600060646012600a6108ff9190611904565b8361090a919061194f565b61091491906119c0565b90506109203383610ec2565b600660009054906101000a900473ffffffffffffffffffffffffffffffffffffffff1673ffffffffffffffffffffffffffffffffffffffff1663a9059cbb33836040518363ffffffff1660e01b815260040161097d929190611ba8565b6020604051808303816000875af115801561099c573d6000803e3d6000fd5b505050506040513d601f19601f820116820180604052508101906109c09190611a54565b503373ffffffffffffffffffffffffffffffffffffffff167f14614d2f2adbbfcddeaf6d212446f807d8489f7d0bd69ca7f51bc9c82dc925448383604051610a09929190611a81565b60405180910390a25050565b6000600160008473ffffffffffffffffffffffffffffffffffffffff1673ffffffffffffffffffffffffffffffffffffffff16815260200190815260200160002060008373ffffffffffffffffffffffffffffffffffffffff1673ffffffffffffffffffffffffffffffffffffffff16815260200190815260200160002054905092915050565b610aa4610d75565b600073ffffffffffffffffffffffffffffffffffffffff168173ffffffffffffffffffffffffffffffffffffffff1603610b165760006040517f1e4fbdf7000000000000000000000000000000000000000000000000000000008152600401610b0d91906115c4565b60405180910390fd5b610b1f81610dfc565b50565b60006012600a610b329190611904565b606483610b3f919061194f565b610b4991906119c0565b9050919050565b600033905090565b610b658383836001610f44565b505050565b6000610b768484610a15565b90507fffffffffffffffffffffffffffffffffffffffffffffffffffffffffffffffff811015610bf95781811015610be9578281836040517ffb8f41b2000000000000000000000000000000000000000000000000000000008152600401610be093929190611bd1565b60405180910390fd5b610bf884848484036000610f44565b5b50505050565b600073ffffffffffffffffffffffffffffffffffffffff168373ffffffffffffffffffffffffffffffffffffffff1603610c715760006040517f96c6fd1e000000000000000000000000000000000000000000000000000000008152600401610c6891906115c4565b60405180910390fd5b600073ffffffffffffffffffffffffffffffffffffffff168273ffffffffffffffffffffffffffffffffffffffff1603610ce35760006040517fec442f05000000000000000000000000000000000000000000000000000000008152600401610cda91906115c4565b60405180910390fd5b610cee83838361111b565b505050565b600073ffffffffffffffffffffffffffffffffffffffff168273ffffffffffffffffffffffffffffffffffffffff1603610d655760006040517fec442f05000000000000000000000000000000000000000000000000000000008152600401610d5c91906115c4565b60405180910390fd5b610d716000838361111b565b5050565b610d7d610b50565b73ffffffffffffffffffffffffffffffffffffffff16610d9b610752565b73ffffffffffffffffffffffffffffffffffffffff1614610dfa57610dbe610b50565b6040517f118cdaa7000000000000000000000000000000000000000000000000000000008152600401610df191906115c4565b60405180910390fd5b565b6000600560009054906101000a900473ffffffffffffffffffffffffffffffffffffffff16905081600560006101000a81548173ffffffffffffffffffffffffffffffffffffffff021916908373ffffffffffffffffffffffffffffffffffffffff1602179055508173ffffffffffffffffffffffffffffffffffffffff168173ffffffffffffffffffffffffffffffffffffffff167f8be0079c531659141344cd1fd0a4f28419497f9722a3daafe3b4186f6b6457e060405160405180910390a35050565b600073ffffffffffffffffffffffffffffffffffffffff168273ffffffffffffffffffffffffffffffffffffffff1603610f345760006040517f96c6fd1e000000000000000000000000000000000000000000000000000000008152600401610f2b91906115c4565b60405180910390fd5b610f408260008361111b565b5050565b600073ffffffffffffffffffffffffffffffffffffffff168473ffffffffffffffffffffffffffffffffffffffff1603610fb65760006040517fe602df05000000000000000000000000000000000000000000000000000000008152600401610fad91906115c4565b60405180910390fd5b600073ffffffffffffffffffffffffffffffffffffffff168373ffffffffffffffffffffffffffffffffffffffff16036110285760006040517f94280d6200000000000000000000000000000000000000000000000000000000815260040161101f91906115c4565b60405180910390fd5b81600160008673ffffffffffffffffffffffffffffffffffffffff1673ffffffffffffffffffffffffffffffffffffffff16815260200190815260200160002060008573ffffffffffffffffffffffffffffffffffffffff1673ffffffffffffffffffffffffffffffffffffffff168152602001908152602001600020819055508015611115578273ffffffffffffffffffffffffffffffffffffffff168473ffffffffffffffffffffffffffffffffffffffff167f8c5be1e5ebec7d5bd14f71427d1e84f3dd0314c0f7b2291e5b200ac8c7c3b9258460405161110c9190611359565b60405180910390a35b50505050565b600073ffffffffffffffffffffffffffffffffffffffff168373ffffffffffffffffffffffffffffffffffffffff160361116d5780600260008282546111619190611c08565b92505081905550611240565b60008060008573ffffffffffffffffffffffffffffffffffffffff1673ffffffffffffffffffffffffffffffffffffffff168152602001908152602001600020549050818110156111f9578381836040517fe450d38c0000000000000000000000000000000000000000000000000000000081526004016111f093929190611bd1565b60405180910390fd5b8181036000808673ffffffffffffffffffffffffffffffffffffffff1673ffffffffffffffffffffffffffffffffffffffff16815260200190815260200160002081905550505b600073ffffffffffffffffffffffffffffffffffffffff168273ffffffffffffffffffffffffffffffffffffffff160361128957806002600082825403925050819055506112d6565b806000808473ffffffffffffffffffffffffffffffffffffffff1673ffffffffffffffffffffffffffffffffffffffff168152602001908152602001600020600082825401925050819055505b8173ffffffffffffffffffffffffffffffffffffffff168373ffffffffffffffffffffffffffffffffffffffff167fddf252ad1be2c89b69c2b068fc378daa952ba7f163c4a11628f55a4df523b3ef836040516113339190611359565b60405180910390a3505050565b6000819050919050565b61135381611340565b82525050565b600060208201905061136e600083018461134a565b92915050565b600081519050919050565b600082825260208201905092915050565b60005b838110156113ae578082015181840152602081019050611393565b60008484015250505050565b6000601f19601f8301169050919050565b60006113d682611374565b6113e0818561137f565b93506113f0818560208601611390565b6113f9816113ba565b840191505092915050565b6000602082019050818103600083015261141e81846113cb565b905092915050565b600080fd5b600073ffffffffffffffffffffffffffffffffffffffff82169050919050565b60006114568261142b565b9050919050565b6114668161144b565b811461147157600080fd5b50565b6000813590506114838161145d565b92915050565b61149281611340565b811461149d57600080fd5b50565b6000813590506114af81611489565b92915050565b600080604083850312156114cc576114cb611426565b5b60006114da85828601611474565b92505060206114eb858286016114a0565b9150509250929050565b60008115159050919050565b61150a816114f5565b82525050565b60006020820190506115256000830184611501565b92915050565b60008060006060848603121561154457611543611426565b5b600061155286828701611474565b935050602061156386828701611474565b9250506040611574868287016114a0565b9150509250925092565b600060ff82169050919050565b6115948161157e565b82525050565b60006020820190506115af600083018461158b565b92915050565b6115be8161144b565b82525050565b60006020820190506115d960008301846115b5565b92915050565b6000602082840312156115f5576115f4611426565b5b6000611603848285016114a0565b91505092915050565b60006020828403121561162257611621611426565b5b600061163084828501611474565b91505092915050565b600060608201905061164e600083018661134a565b61165b602083018561134a565b611668604083018461134a565b949350505050565b6000806040838503121561168757611686611426565b5b600061169585828601611474565b92505060206116a685828601611474565b9150509250929050565b7f4e487b7100000000000000000000000000000000000000000000000000000000600052602260045260246000fd5b600060028204905060018216806116f757607f821691505b60208210810361170a576117096116b0565b5b50919050565b7f505a4f20616d6f756e74206d7573742062652067726561746572207468616e2060008201527f3000000000000000000000000000000000000000000000000000000000000000602082015250565b600061176c60218361137f565b915061177782611710565b604082019050919050565b6000602082019050818103600083015261179b8161175f565b9050919050565b7f4e487b7100000000000000000000000000000000000000000000000000000000600052601160045260246000fd5b60008160011c9050919050565b6000808291508390505b600185111561182857808604811115611804576118036117a2565b5b60018516156118135780820291505b8081029050611821856117d1565b94506117e8565b94509492505050565b60008261184157600190506118fd565b8161184f57600090506118fd565b8160018114611865576002811461186f5761189e565b60019150506118fd565b60ff841115611881576118806117a2565b5b8360020a915084821115611898576118976117a2565b5b506118fd565b5060208310610133831016604e8410600b84101617156118d35782820a9050838111156118ce576118cd6117a2565b5b6118fd565b6118e084848460016117de565b925090508184048111156118f7576118f66117a2565b5b81810290505b9392505050565b600061190f82611340565b915061191a83611340565b92506119477fffffffffffffffffffffffffffffffffffffffffffffffffffffffffffffffff8484611831565b905092915050565b600061195a82611340565b915061196583611340565b925082820261197381611340565b9150828204841483151761198a576119896117a2565b5b5092915050565b7f4e487b7100000000000000000000000000000000000000000000000000000000600052601260045260246000fd5b60006119cb82611340565b91506119d683611340565b9250826119e6576119e5611991565b5b828204905092915050565b6000606082019050611a0660008301866115b5565b611a1360208301856115b5565b611a20604083018461134a565b949350505050565b611a31816114f5565b8114611a3c57600080fd5b50565b600081519050611a4e81611a28565b92915050565b600060208284031215611a6a57611a69611426565b5b6000611a7884828501611a3f565b91505092915050565b6000604082019050611a96600083018561134a565b611aa3602083018461134a565b9392505050565b7f506f696e7420616d6f756e74206d75737420626520677265617465722074686160008201527f6e20300000000000000000000000000000000000000000000000000000000000602082015250565b6000611b0660238361137f565b9150611b1182611aaa565b604082019050919050565b60006020820190508181036000830152611b3581611af9565b9050919050565b7f496e73756666696369656e7420706f696e74732062616c616e63650000000000600082015250565b6000611b72601b8361137f565b9150611b7d82611b3c565b602082019050919050565b60006020820190508181036000830152611ba181611b65565b9050919050565b6000604082019050611bbd60008301856115b5565b611bca602083018461134a565b9392505050565b6000606082019050611be660008301866115b5565b611bf3602083018561134a565b611c00604083018461134a565b949350505050565b6000611c1382611340565b9150611c1e83611340565b9250828201905080821115611c3657611c356117a2565b5b9291505056fea2646970667358221220561b9b33d0498811a70a2ac0317462adf347aa016cb390bb6a37975c4a1b02e064736f6c63430008140033",
  "linkReferences": {},
  "deployedLinkReferences": {}
}