{
  "_format": "hh-sol-artifact-1",
  "contractName": "EduWalletDataStore",
  "sourceName": "contracts/SoilDataStore.sol",
  "abi": [
    {
      "inputs": [],
      "stateMutability": "nonpayable",
      "type": "constructor"
    },
    {
      "anonymous": false,
      "inputs": [
        {
          "indexed": true,
          "internalType": "uint256",
          "name": "id",
          "type": "uint256"
        },
        {
          "indexed": false,
          "internalType": "string",
          "name": "name",
          "type": "string"
        },
        {
          "indexed": true,
          "internalType": "address",
          "name": "student",
          "type": "address"
        }
      ],
      "name": "BadgeEarned",
      "type": "event"
    },
    {
      "anonymous": false,
      "inputs": [
        {
          "indexed": true,
          "internalType": "address",
          "name": "issuer",
          "type": "address"
        },
        {
          "indexed": false,
          "internalType": "bool",
          "name": "authorized",
          "type": "bool"
        }
      ],
      "name": "IssuerAuthorized",
      "type": "event"
    },
    {
      "anonymous": false,
      "inputs": [
        {
          "indexed": true,
          "internalType": "uint256",
          "name": "id",
          "type": "uint256"
        },
        {
          "indexed": false,
          "internalType": "string",
          "name": "studentName",
          "type": "string"
        },
        {
          "indexed": false,
          "internalType": "string",
          "name": "courseName",
          "type": "string"
        },
        {
          "indexed": true,
          "internalType": "address",
          "name": "student",
          "type": "address"
        }
      ],
      "name": "LearningRecordAdded",
      "type": "event"
    },
    {
      "anonymous": false,
      "inputs": [
        {
          "indexed": true,
          "internalType": "uint256",
          "name": "id",
          "type": "uint256"
        },
        {
          "indexed": false,
          "internalType": "string",
          "name": "title",
          "type": "string"
        },
        {
          "indexed": true,
          "internalType": "address",
          "name": "owner",
          "type": "address"
        }
      ],
      "name": "PortfolioCreated",
      "type": "event"
    },
    {
      "inputs": [
        {
          "internalType": "string",
          "name": "_studentName",
          "type": "string"
        },
        {
          "internalType": "string",
          "name": "_institution",
          "type": "string"
        },
        {
          "internalType": "string",
          "name": "_courseName",
          "type": "string"
        },
        {
          "internalType": "string",
          "name": "_certificateHash",
          "type": "string"
        },
        {
          "internalType": "uint256",
          "name": "_score",
          "type": "uint256"
        },
        {
          "internalType": "address",
          "name": "_student",
          "type": "address"
        }
      ],
      "name": "addLearningRecord",
      "outputs": [],
      "stateMutability": "nonpayable",
      "type": "function"
    },
    {
      "inputs": [
        {
          "internalType": "address",
          "name": "_issuer",
          "type": "address"
        },
        {
          "internalType": "bool",
          "name": "_authorized",
          "type": "bool"
        }
      ],
      "name": "authorizeIssuer",
      "outputs": [],
      "stateMutability": "nonpayable",
      "type": "function"
    },
    {
      "inputs": [
        {
          "internalType": "address",
          "name": "",
          "type": "address"
        }
      ],
      "name": "authorizedIssuers",
      "outputs": [
        {
          "internalType": "bool",
          "name": "",
          "type": "bool"
        }
      ],
      "stateMutability": "view",
      "type": "function"
    },
    {
      "inputs": [],
      "name": "badgeCount",
      "outputs": [
        {
          "internalType": "uint256",
          "name": "",
          "type": "uint256"
        }
      ],
      "stateMutability": "view",
      "type": "function"
    },
    {
      "inputs": [
        {
          "internalType": "uint256",
          "name": "",
          "type": "uint256"
        }
      ],
      "name": "badges",
      "outputs": [
        {
          "internalType": "uint256",
          "name": "id",
          "type": "uint256"
        },
        {
          "internalType": "string",
          "name": "name",
          "type": "string"
        },
        {
          "internalType": "string",
          "name": "description",
          "type": "string"
        },
        {
          "internalType": "string",
          "name": "imageHash",
          "type": "string"
        },
        {
          "internalType": "uint256",
          "name": "earnedDate",
          "type": "uint256"
        },
        {
          "internalType": "address",
          "name": "student",
          "type": "address"
        },
        {
          "internalType": "bool",
          "name": "active",
          "type": "bool"
        }
      ],
      "stateMutability": "view",
      "type": "function"
    },
    {
      "inputs": [
        {
          "internalType": "string",
          "name": "_title",
          "type": "string"
        },
        {
          "internalType": "string",
          "name": "_description",
          "type": "string"
        },
        {
          "internalType": "string",
          "name": "_projectHash",
          "type": "string"
        },
        {
          "internalType": "string[]",
          "name": "_skills",
          "type": "string[]"
        }
      ],
      "name": "createPortfolio",
      "outputs": [],
      "stateMutability": "nonpayable",
      "type": "function"
    },
    {
      "inputs": [
        {
          "internalType": "string",
          "name": "_name",
          "type": "string"
        },
        {
          "internalType": "string",
          "name": "_description",
          "type": "string"
        },
        {
          "internalType": "string",
          "name": "_imageHash",
          "type": "string"
        },
        {
          "internalType": "address",
          "name": "_student",
          "type": "address"
        }
      ],
      "name": "earnBadge",
      "outputs": [],
      "stateMutability": "nonpayable",
      "type": "function"
    },
    {
      "inputs": [
        {
          "internalType": "uint256",
          "name": "_id",
          "type": "uint256"
        }
      ],
      "name": "getBadge",
      "outputs": [
        {
          "internalType": "uint256",
          "name": "id",
          "type": "uint256"
        },
        {
          "internalType": "string",
          "name": "name",
          "type": "string"
        },
        {
          "internalType": "string",
          "name": "description",
          "type": "string"
        },
        {
          "internalType": "string",
          "name": "imageHash",
          "type": "string"
        },
        {
          "internalType": "uint256",
          "name": "earnedDate",
          "type": "uint256"
        },
        {
          "internalType": "address",
          "name": "student",
          "type": "address"
        },
        {
          "internalType": "bool",
          "name": "active",
          "type": "bool"
        }
      ],
      "stateMutability": "view",
      "type": "function"
    },
    {
      "inputs": [],
      "name": "getCounts",
      "outputs": [
        {
          "internalType": "uint256",
          "name": "records",
          "type": "uint256"
        },
        {
          "internalType": "uint256",
          "name": "badges",
          "type": "uint256"
        },
        {
          "internalType": "uint256",
          "name": "portfolios",
          "type": "uint256"
        }
      ],
      "stateMutability": "view",
      "type": "function"
    },
    {
      "inputs": [
        {
          "internalType": "uint256",
          "name": "_id",
          "type": "uint256"
        }
      ],
      "name": "getLearningRecord",
      "outputs": [
        {
          "internalType": "uint256",
          "name": "id",
          "type": "uint256"
        },
        {
          "internalType": "string",
          "name": "studentName",
          "type": "string"
        },
        {
          "internalType": "string",
          "name": "institution",
          "type": "string"
        },
        {
          "internalType": "string",
          "name": "courseName",
          "type": "string"
        },
        {
          "internalType": "string",
          "name": "certificateHash",
          "type": "string"
        },
        {
          "internalType": "uint256",
          "name": "completionDate",
          "type": "uint256"
        },
        {
          "internalType": "uint256",
          "name": "score",
          "type": "uint256"
        },
        {
          "internalType": "bool",
          "name": "verified",
          "type": "bool"
        },
        {
          "internalType": "address",
          "name": "issuer",
          "type": "address"
        },
        {
          "internalType": "address",
          "name": "student",
          "type": "address"
        }
      ],
      "stateMutability": "view",
      "type": "function"
    },
    {
      "inputs": [
        {
          "internalType": "uint256",
          "name": "_id",
          "type": "uint256"
        }
      ],
      "name": "getPortfolio",
      "outputs": [
        {
          "internalType": "uint256",
          "name": "id",
          "type": "uint256"
        },
        {
          "internalType": "string",
          "name": "title",
          "type": "string"
        },
        {
          "internalType": "string",
          "name": "description",
          "type": "string"
        },
        {
          "internalType": "string",
          "name": "projectHash",
          "type": "string"
        },
        {
          "internalType": "string[]",
          "name": "skills",
          "type": "string[]"
        },
        {
          "internalType": "uint256",
          "name": "createdDate",
          "type": "uint256"
        },
        {
          "internalType": "address",
          "name": "owner",
          "type": "address"
        }
      ],
      "stateMutability": "view",
      "type": "function"
    },
    {
      "inputs": [
        {
          "internalType": "address",
          "name": "_student",
          "type": "address"
        }
      ],
      "name": "getStudentBadges",
      "outputs": [
        {
          "internalType": "uint256[]",
          "name": "",
          "type": "uint256[]"
        }
      ],
      "stateMutability": "view",
      "type": "function"
    },
    {
      "inputs": [
        {
          "internalType": "address",
          "name": "_student",
          "type": "address"
        }
      ],
      "name": "getStudentPortfolios",
      "outputs": [
        {
          "internalType": "uint256[]",
          "name": "",
          "type": "uint256[]"
        }
      ],
      "stateMutability": "view",
      "type": "function"
    },
    {
      "inputs": [
        {
          "internalType": "address",
          "name": "_student",
          "type": "address"
        }
      ],
      "name": "getStudentRecords",
      "outputs": [
        {
          "internalType": "uint256[]",
          "name": "",
          "type": "uint256[]"
        }
      ],
      "stateMutability": "view",
      "type": "function"
    },
    {
      "inputs": [
        {
          "internalType": "uint256",
          "name": "",
          "type": "uint256"
        }
      ],
      "name": "learningRecords",
      "outputs": [
        {
          "internalType": "uint256",
          "name": "id",
          "type": "uint256"
        },
        {
          "internalType": "string",
          "name": "studentName",
          "type": "string"
        },
        {
          "internalType": "string",
          "name": "institution",
          "type": "string"
        },
        {
          "internalType": "string",
          "name": "courseName",
          "type": "string"
        },
        {
          "internalType": "string",
          "name": "certificateHash",
          "type": "string"
        },
        {
          "internalType": "uint256",
          "name": "completionDate",
          "type": "uint256"
        },
        {
          "internalType": "uint256",
          "name": "score",
          "type": "uint256"
        },
        {
          "internalType": "bool",
          "name": "verified",
          "type": "bool"
        },
        {
          "internalType": "address",
          "name": "issuer",
          "type": "address"
        },
        {
          "internalType": "address",
          "name": "student",
          "type": "address"
        }
      ],
      "stateMutability": "view",
      "type": "function"
    },
    {
      "inputs": [],
      "name": "owner",
      "outputs": [
        {
          "internalType": "address",
          "name": "",
          "type": "address"
        }
      ],
      "stateMutability": "view",
      "type": "function"
    },
    {
      "inputs": [],
      "name": "portfolioCount",
      "outputs": [
        {
          "internalType": "uint256",
          "name": "",
          "type": "uint256"
        }
      ],
      "stateMutability": "view",
      "type": "function"
    },
    {
      "inputs": [
        {
          "internalType": "uint256",
          "name": "",
          "type": "uint256"
        }
      ],
      "name": "portfolios",
      "outputs": [
        {
          "internalType": "uint256",
          "name": "id",
          "type": "uint256"
        },
        {
          "internalType": "string",
          "name": "title",
          "type": "string"
        },
        {
          "internalType": "string",
          "name": "description",
          "type": "string"
        },
        {
          "internalType": "string",
          "name": "projectHash",
          "type": "string"
        },
        {
          "internalType": "uint256",
          "name": "createdDate",
          "type": "uint256"
        },
        {
          "internalType": "address",
          "name": "owner",
          "type": "address"
        }
      ],
      "stateMutability": "view",
      "type": "function"
    },
    {
      "inputs": [],
      "name": "recordCount",
      "outputs": [
        {
          "internalType": "uint256",
          "name": "",
          "type": "uint256"
        }
      ],
      "stateMutability": "view",
      "type": "function"
    },
    {
      "inputs": [
        {
          "internalType": "address",
          "name": "",
          "type": "address"
        },
        {
          "internalType": "uint256",
          "name": "",
          "type": "uint256"
        }
      ],
      "name": "studentBadges",
      "outputs": [
        {
          "internalType": "uint256",
          "name": "",
          "type": "uint256"
        }
      ],
      "stateMutability": "view",
      "type": "function"
    },
    {
      "inputs": [
        {
          "internalType": "address",
          "name": "",
          "type": "address"
        },
        {
          "internalType": "uint256",
          "name": "",
          "type": "uint256"
        }
      ],
      "name": "studentPortfolios",
      "outputs": [
        {
          "internalType": "uint256",
          "name": "",
          "type": "uint256"
        }
      ],
      "stateMutability": "view",
      "type": "function"
    },
    {
      "inputs": [
        {
          "internalType": "address",
          "name": "",
          "type": "address"
        },
        {
          "internalType": "uint256",
          "name": "",
          "type": "uint256"
        }
      ],
      "name": "studentRecords",
      "outputs": [
        {
          "internalType": "uint256",
          "name": "",
          "type": "uint256"
        }
      ],
      "stateMutability": "view",
      "type": "function"
    }
  ],
  "bytecode": "0x608060405234801561001057600080fd5b5033600a60006101000a81548173ffffffffffffffffffffffffffffffffffffffff021916908373ffffffffffffffffffffffffffffffffffffffff1602179055506001600960003373ffffffffffffffffffffffffffffffffffffffff1673ffffffffffffffffffffffffffffffffffffffff16815260200190815260200160002060006101000a81548160ff02191690831515021790555061356c806100b96000396000f3fe608060405234801561001057600080fd5b50600436106101425760003560e01c806378985f76116100b8578063900407bc1161007c578063900407bc146103db57806398e36d8b146103f95780639ee8921b1461042f578063a53738991461045f578063dbaf557f1461047f578063f731fa0f146104b857610142565b806378985f7614610305578063794c0594146103215780637b656ada146103575780638d838622146103875780638da5cb5b146103bd57610142565b806345b56ac21161010a57806345b56ac21461020b57806350841ab71461023b578063547cd6441461026b5780635b8066451461029b5780636006ff9c146102b95780636b5fbba2146102d557610142565b80630f71ab03146101475780631fcf56f21461016357806335545a2014610181578063367ca914146101ba5780633ef8398e146101ef575b600080fd5b610161600480360381019061015c919061241e565b6104e8565b005b61016b610621565b6040516101789190612477565b60405180910390f35b61019b600480360381019061019691906124be565b610627565b6040516101b19a99989796959493929190612599565b60405180910390f35b6101d460048036038101906101cf91906124be565b6108e8565b6040516101e696959493929190612651565b60405180910390f35b610209600480360381019061020491906127fc565b610adc565b005b610225600480360381019061022091906128f9565b610e4f565b60405161023291906129e4565b60405180910390f35b610255600480360381019061025091906128f9565b610ee6565b60405161026291906129e4565b60405180910390f35b61028560048036038101906102809190612a06565b610f7d565b6040516102929190612477565b60405180910390f35b6102a3610fae565b6040516102b09190612477565b60405180910390f35b6102d360048036038101906102ce9190612b2c565b610fb4565b005b6102ef60048036038101906102ea9190612a06565b6111a8565b6040516102fc9190612477565b60405180910390f35b61031f600480360381019061031a9190612c03565b6111d9565b005b61033b600480360381019061033691906124be565b6114b7565b60405161034e9796959493929190612dca565b60405180910390f35b610371600480360381019061036c9190612a06565b61186b565b60405161037e9190612477565b60405180910390f35b6103a1600480360381019061039c91906124be565b61189c565b6040516103b49796959493929190612e55565b60405180910390f35b6103c5611b92565b6040516103d29190612ed9565b60405180910390f35b6103e3611bb8565b6040516103f09190612477565b60405180910390f35b610413600480360381019061040e91906124be565b611bbe565b6040516104269796959493929190612e55565b60405180910390f35b610449600480360381019061044491906128f9565b611dc5565b60405161045691906129e4565b60405180910390f35b610467611e5c565b60405161047693929190612ef4565b60405180910390f35b610499600480360381019061049491906124be565b611e75565b6040516104af9a99989796959493929190612599565b60405180910390f35b6104d260048036038101906104cd91906128f9565b61227a565b6040516104df9190612f2b565b60405180910390f35b600a60009054906101000a900473ffffffffffffffffffffffffffffffffffffffff1673ffffffffffffffffffffffffffffffffffffffff163373ffffffffffffffffffffffffffffffffffffffff1614610578576040517f08c379a000000000000000000000000000000000000000000000000000000000815260040161056f90612fb8565b60405180910390fd5b80600960008473ffffffffffffffffffffffffffffffffffffffff1673ffffffffffffffffffffffffffffffffffffffff16815260200190815260200160002060006101000a81548160ff0219169083151502179055508173ffffffffffffffffffffffffffffffffffffffff167f323f1985f95ab4281ac5356feae087f07598411565971dd57673e77bf9aecea8826040516106159190612f2b565b60405180910390a25050565b60085481565b600060205280600052604060002060009150905080600001549080600101805461065090613007565b80601f016020809104026020016040519081016040528092919081815260200182805461067c90613007565b80156106c95780601f1061069e576101008083540402835291602001916106c9565b820191906000526020600020905b8154815290600101906020018083116106ac57829003601f168201915b5050505050908060020180546106de90613007565b80601f016020809104026020016040519081016040528092919081815260200182805461070a90613007565b80156107575780601f1061072c57610100808354040283529160200191610757565b820191906000526020600020905b81548152906001019060200180831161073a57829003601f168201915b50505050509080600301805461076c90613007565b80601f016020809104026020016040519081016040528092919081815260200182805461079890613007565b80156107e55780601f106107ba576101008083540402835291602001916107e5565b820191906000526020600020905b8154815290600101906020018083116107c857829003601f168201915b5050505050908060040180546107fa90613007565b80601f016020809104026020016040519081016040528092919081815260200182805461082690613007565b80156108735780601f1061084857610100808354040283529160200191610873565b820191906000526020600020905b81548152906001019060200180831161085657829003601f168201915b5050505050908060050154908060060154908060070160009054906101000a900460ff16908060070160019054906101000a900473ffffffffffffffffffffffffffffffffffffffff16908060080160009054906101000a900473ffffffffffffffffffffffffffffffffffffffff1690508a565b600260205280600052604060002060009150905080600001549080600101805461091190613007565b80601f016020809104026020016040519081016040528092919081815260200182805461093d90613007565b801561098a5780601f1061095f5761010080835404028352916020019161098a565b820191906000526020600020905b81548152906001019060200180831161096d57829003601f168201915b50505050509080600201805461099f90613007565b80601f01602080910402602001604051908101604052809291908181526020018280546109cb90613007565b8015610a185780601f106109ed57610100808354040283529160200191610a18565b820191906000526020600020905b8154815290600101906020018083116109fb57829003601f168201915b505050505090806003018054610a2d90613007565b80601f0160208091040260200160405190810160405280929190818152602001828054610a5990613007565b8015610aa65780601f10610a7b57610100808354040283529160200191610aa6565b820191906000526020600020905b815481529060010190602001808311610a8957829003601f168201915b5050505050908060050154908060060160009054906101000a900473ffffffffffffffffffffffffffffffffffffffff16905086565b600960003373ffffffffffffffffffffffffffffffffffffffff1673ffffffffffffffffffffffffffffffffffffffff16815260200190815260200160002060009054906101000a900460ff1680610b815750600a60009054906101000a900473ffffffffffffffffffffffffffffffffffffffff1673ffffffffffffffffffffffffffffffffffffffff163373ffffffffffffffffffffffffffffffffffffffff16145b610bc0576040517f08c379a0000000000000000000000000000000000000000000000000000000008152600401610bb790613084565b60405180910390fd5b60066000815480929190610bd3906130d3565b919050555060405180610140016040528060065481526020018781526020018681526020018581526020018481526020014281526020018381526020016001151581526020013373ffffffffffffffffffffffffffffffffffffffff1681526020018273ffffffffffffffffffffffffffffffffffffffff168152506000806006548152602001908152602001600020600082015181600001556020820151816001019081610c8291906132c7565b506040820151816002019081610c9891906132c7565b506060820151816003019081610cae91906132c7565b506080820151816004019081610cc491906132c7565b5060a0820151816005015560c0820151816006015560e08201518160070160006101000a81548160ff0219169083151502179055506101008201518160070160016101000a81548173ffffffffffffffffffffffffffffffffffffffff021916908373ffffffffffffffffffffffffffffffffffffffff1602179055506101208201518160080160006101000a81548173ffffffffffffffffffffffffffffffffffffffff021916908373ffffffffffffffffffffffffffffffffffffffff160217905550905050600360008273ffffffffffffffffffffffffffffffffffffffff1673ffffffffffffffffffffffffffffffffffffffff16815260200190815260200160002060065490806001815401808255809150506001900390600052602060002001600090919091909150558073ffffffffffffffffffffffffffffffffffffffff166006547f497aa38488a511db9862700882ec774872601c78416b46cb3492e5c9c0a595798887604051610e3f929190613399565b60405180910390a3505050505050565b6060600560008373ffffffffffffffffffffffffffffffffffffffff1673ffffffffffffffffffffffffffffffffffffffff168152602001908152602001600020805480602002602001604051908101604052809291908181526020018280548015610eda57602002820191906000526020600020905b815481526020019060010190808311610ec6575b50505050509050919050565b6060600360008373ffffffffffffffffffffffffffffffffffffffff1673ffffffffffffffffffffffffffffffffffffffff168152602001908152602001600020805480602002602001604051908101604052809291908181526020018280548015610f7157602002820191906000526020600020905b815481526020019060010190808311610f5d575b50505050509050919050565b60046020528160005260406000208181548110610f9957600080fd5b90600052602060002001600091509150505481565b60075481565b60086000815480929190610fc7906130d3565b91905055506040518060e0016040528060085481526020018581526020018481526020018381526020018281526020014281526020013373ffffffffffffffffffffffffffffffffffffffff1681525060026000600854815260200190815260200160002060008201518160000155602082015181600101908161104b91906132c7565b50604082015181600201908161106191906132c7565b50606082015181600301908161107791906132c7565b50608082015181600401908051906020019061109492919061229a565b5060a0820151816005015560c08201518160060160006101000a81548173ffffffffffffffffffffffffffffffffffffffff021916908373ffffffffffffffffffffffffffffffffffffffff160217905550905050600560003373ffffffffffffffffffffffffffffffffffffffff1673ffffffffffffffffffffffffffffffffffffffff16815260200190815260200160002060085490806001815401808255809150506001900390600052602060002001600090919091909150553373ffffffffffffffffffffffffffffffffffffffff166008547f599d60c6c530ae54f00e09bff41671fc4bb6cd8c9d1819c9029797c17d94083e8660405161119a91906133d0565b60405180910390a350505050565b600560205281600052604060002081815481106111c457600080fd5b90600052602060002001600091509150505481565b600960003373ffffffffffffffffffffffffffffffffffffffff1673ffffffffffffffffffffffffffffffffffffffff16815260200190815260200160002060009054906101000a900460ff168061127e5750600a60009054906101000a900473ffffffffffffffffffffffffffffffffffffffff1673ffffffffffffffffffffffffffffffffffffffff163373ffffffffffffffffffffffffffffffffffffffff16145b6112bd576040517f08c379a00000000000000000000000000000000000000000000000000000000081526004016112b490613084565b60405180910390fd5b600760008154809291906112d0906130d3565b91905055506040518060e0016040528060075481526020018581526020018481526020018381526020014281526020018273ffffffffffffffffffffffffffffffffffffffff1681526020016001151581525060016000600754815260200190815260200160002060008201518160000155602082015181600101908161135791906132c7565b50604082015181600201908161136d91906132c7565b50606082015181600301908161138391906132c7565b506080820151816004015560a08201518160050160006101000a81548173ffffffffffffffffffffffffffffffffffffffff021916908373ffffffffffffffffffffffffffffffffffffffff16021790555060c08201518160050160146101000a81548160ff021916908315150217905550905050600460008273ffffffffffffffffffffffffffffffffffffffff1673ffffffffffffffffffffffffffffffffffffffff16815260200190815260200160002060075490806001815401808255809150506001900390600052602060002001600090919091909150558073ffffffffffffffffffffffffffffffffffffffff166007547f1c5bbe5d5daddf9eae739f20202c6d08583eaedf9f62c6d2e6b984034ac84ced866040516114a991906133d0565b60405180910390a350505050565b60006060806060806000806000881180156114d457506008548811155b611513576040517f08c379a000000000000000000000000000000000000000000000000000000000815260040161150a9061343e565b60405180910390fd5b6000600260008a81526020019081526020016000206040518060e00160405290816000820154815260200160018201805461154d90613007565b80601f016020809104026020016040519081016040528092919081815260200182805461157990613007565b80156115c65780601f1061159b576101008083540402835291602001916115c6565b820191906000526020600020905b8154815290600101906020018083116115a957829003601f168201915b505050505081526020016002820180546115df90613007565b80601f016020809104026020016040519081016040528092919081815260200182805461160b90613007565b80156116585780601f1061162d57610100808354040283529160200191611658565b820191906000526020600020905b81548152906001019060200180831161163b57829003601f168201915b5050505050815260200160038201805461167190613007565b80601f016020809104026020016040519081016040528092919081815260200182805461169d90613007565b80156116ea5780601f106116bf576101008083540402835291602001916116ea565b820191906000526020600020905b8154815290600101906020018083116116cd57829003601f168201915b5050505050815260200160048201805480602002602001604051908101604052809291908181526020016000905b828210156117c457838290600052602060002001805461173790613007565b80601f016020809104026020016040519081016040528092919081815260200182805461176390613007565b80156117b05780601f10611785576101008083540402835291602001916117b0565b820191906000526020600020905b81548152906001019060200180831161179357829003601f168201915b505050505081526020019060010190611718565b505050508152602001600582015481526020016006820160009054906101000a900473ffffffffffffffffffffffffffffffffffffffff1673ffffffffffffffffffffffffffffffffffffffff1673ffffffffffffffffffffffffffffffffffffffff16815250509050806000015181602001518260400151836060015184608001518560a001518660c00151975097509750975097509750975050919395979092949650565b6003602052816000526040600020818154811061188757600080fd5b90600052602060002001600091509150505481565b60006060806060600080600080881180156118b957506007548811155b6118f8576040517f08c379a00000000000000000000000000000000000000000000000000000000081526004016118ef906134aa565b60405180910390fd5b6000600160008a81526020019081526020016000206040518060e00160405290816000820154815260200160018201805461193290613007565b80601f016020809104026020016040519081016040528092919081815260200182805461195e90613007565b80156119ab5780601f10611980576101008083540402835291602001916119ab565b820191906000526020600020905b81548152906001019060200180831161198e57829003601f168201915b505050505081526020016002820180546119c490613007565b80601f01602080910402602001604051908101604052809291908181526020018280546119f090613007565b8015611a3d5780601f10611a1257610100808354040283529160200191611a3d565b820191906000526020600020905b815481529060010190602001808311611a2057829003601f168201915b50505050508152602001600382018054611a5690613007565b80601f0160208091040260200160405190810160405280929190818152602001828054611a8290613007565b8015611acf5780601f10611aa457610100808354040283529160200191611acf565b820191906000526020600020905b815481529060010190602001808311611ab257829003601f168201915b50505050508152602001600482015481526020016005820160009054906101000a900473ffffffffffffffffffffffffffffffffffffffff1673ffffffffffffffffffffffffffffffffffffffff1673ffffffffffffffffffffffffffffffffffffffff1681526020016005820160149054906101000a900460ff1615151515815250509050806000015181602001518260400151836060015184608001518560a001518660c00151975097509750975097509750975050919395979092949650565b600a60009054906101000a900473ffffffffffffffffffffffffffffffffffffffff1681565b60065481565b6001602052806000526040600020600091509050806000015490806001018054611be790613007565b80601f0160208091040260200160405190810160405280929190818152602001828054611c1390613007565b8015611c605780601f10611c3557610100808354040283529160200191611c60565b820191906000526020600020905b815481529060010190602001808311611c4357829003601f168201915b505050505090806002018054611c7590613007565b80601f0160208091040260200160405190810160405280929190818152602001828054611ca190613007565b8015611cee5780601f10611cc357610100808354040283529160200191611cee565b820191906000526020600020905b815481529060010190602001808311611cd157829003601f168201915b505050505090806003018054611d0390613007565b80601f0160208091040260200160405190810160405280929190818152602001828054611d2f90613007565b8015611d7c5780601f10611d5157610100808354040283529160200191611d7c565b820191906000526020600020905b815481529060010190602001808311611d5f57829003601f168201915b5050505050908060040154908060050160009054906101000a900473ffffffffffffffffffffffffffffffffffffffff16908060050160149054906101000a900460ff16905087565b6060600460008373ffffffffffffffffffffffffffffffffffffffff1673ffffffffffffffffffffffffffffffffffffffff168152602001908152602001600020805480602002602001604051908101604052809291908181526020018280548015611e5057602002820191906000526020600020905b815481526020019060010190808311611e3c575b50505050509050919050565b6000806000600654600754600854925092509250909192565b60006060806060806000806000806000808b118015611e9657506006548b11155b611ed5576040517f08c379a0000000000000000000000000000000000000000000000000000000008152600401611ecc90613516565b60405180910390fd5b60008060008d81526020019081526020016000206040518061014001604052908160008201548152602001600182018054611f0f90613007565b80601f0160208091040260200160405190810160405280929190818152602001828054611f3b90613007565b8015611f885780601f10611f5d57610100808354040283529160200191611f88565b820191906000526020600020905b815481529060010190602001808311611f6b57829003601f168201915b50505050508152602001600282018054611fa190613007565b80601f0160208091040260200160405190810160405280929190818152602001828054611fcd90613007565b801561201a5780601f10611fef5761010080835404028352916020019161201a565b820191906000526020600020905b815481529060010190602001808311611ffd57829003601f168201915b5050505050815260200160038201805461203390613007565b80601f016020809104026020016040519081016040528092919081815260200182805461205f90613007565b80156120ac5780601f10612081576101008083540402835291602001916120ac565b820191906000526020600020905b81548152906001019060200180831161208f57829003601f168201915b505050505081526020016004820180546120c590613007565b80601f01602080910402602001604051908101604052809291908181526020018280546120f190613007565b801561213e5780601f106121135761010080835404028352916020019161213e565b820191906000526020600020905b81548152906001019060200180831161212157829003601f168201915b5050505050815260200160058201548152602001600682015481526020016007820160009054906101000a900460ff161515151581526020016007820160019054906101000a900473ffffffffffffffffffffffffffffffffffffffff1673ffffffffffffffffffffffffffffffffffffffff1673ffffffffffffffffffffffffffffffffffffffff1681526020016008820160009054906101000a900473ffffffffffffffffffffffffffffffffffffffff1673ffffffffffffffffffffffffffffffffffffffff1673ffffffffffffffffffffffffffffffffffffffff16815250509050806000015181602001518260400151836060015184608001518560a001518660c001518760e001518861010001518961012001519a509a509a509a509a509a509a509a509a509a50509193959799509193959799565b60096020528060005260406000206000915054906101000a900460ff1681565b8280548282559060005260206000209081019282156122e2579160200282015b828111156122e15782518290816122d191906132c7565b50916020019190600101906122ba565b5b5090506122ef91906122f3565b5090565b5b80821115612313576000818161230a9190612317565b506001016122f4565b5090565b50805461232390613007565b6000825580601f106123355750612354565b601f0160209004906000526020600020908101906123539190612357565b5b50565b5b80821115612370576000816000905550600101612358565b5090565b6000604051905090565b600080fd5b600080fd5b600073ffffffffffffffffffffffffffffffffffffffff82169050919050565b60006123b382612388565b9050919050565b6123c3816123a8565b81146123ce57600080fd5b50565b6000813590506123e0816123ba565b92915050565b60008115159050919050565b6123fb816123e6565b811461240657600080fd5b50565b600081359050612418816123f2565b92915050565b600080604083850312156124355761243461237e565b5b6000612443858286016123d1565b925050602061245485828601612409565b9150509250929050565b6000819050919050565b6124718161245e565b82525050565b600060208201905061248c6000830184612468565b92915050565b61249b8161245e565b81146124a657600080fd5b50565b6000813590506124b881612492565b92915050565b6000602082840312156124d4576124d361237e565b5b60006124e2848285016124a9565b91505092915050565b600081519050919050565b600082825260208201905092915050565b60005b8381101561252557808201518184015260208101905061250a565b60008484015250505050565b6000601f19601f8301169050919050565b600061254d826124eb565b61255781856124f6565b9350612567818560208601612507565b61257081612531565b840191505092915050565b612584816123e6565b82525050565b612593816123a8565b82525050565b6000610140820190506125af600083018d612468565b81810360208301526125c1818c612542565b905081810360408301526125d5818b612542565b905081810360608301526125e9818a612542565b905081810360808301526125fd8189612542565b905061260c60a0830188612468565b61261960c0830187612468565b61262660e083018661257b565b61263461010083018561258a565b61264261012083018461258a565b9b9a5050505050505050505050565b600060c0820190506126666000830189612468565b81810360208301526126788188612542565b9050818103604083015261268c8187612542565b905081810360608301526126a08186612542565b90506126af6080830185612468565b6126bc60a083018461258a565b979650505050505050565b600080fd5b600080fd5b7f4e487b7100000000000000000000000000000000000000000000000000000000600052604160045260246000fd5b61270982612531565b810181811067ffffffffffffffff82111715612728576127276126d1565b5b80604052505050565b600061273b612374565b90506127478282612700565b919050565b600067ffffffffffffffff821115612767576127666126d1565b5b61277082612531565b9050602081019050919050565b82818337600083830152505050565b600061279f61279a8461274c565b612731565b9050828152602081018484840111156127bb576127ba6126cc565b5b6127c684828561277d565b509392505050565b600082601f8301126127e3576127e26126c7565b5b81356127f384826020860161278c565b91505092915050565b60008060008060008060c087890312156128195761281861237e565b5b600087013567ffffffffffffffff81111561283757612836612383565b5b61284389828a016127ce565b965050602087013567ffffffffffffffff81111561286457612863612383565b5b61287089828a016127ce565b955050604087013567ffffffffffffffff81111561289157612890612383565b5b61289d89828a016127ce565b945050606087013567ffffffffffffffff8111156128be576128bd612383565b5b6128ca89828a016127ce565b93505060806128db89828a016124a9565b92505060a06128ec89828a016123d1565b9150509295509295509295565b60006020828403121561290f5761290e61237e565b5b600061291d848285016123d1565b91505092915050565b600081519050919050565b600082825260208201905092915050565b6000819050602082019050919050565b61295b8161245e565b82525050565b600061296d8383612952565b60208301905092915050565b6000602082019050919050565b600061299182612926565b61299b8185612931565b93506129a683612942565b8060005b838110156129d75781516129be8882612961565b97506129c983612979565b9250506001810190506129aa565b5085935050505092915050565b600060208201905081810360008301526129fe8184612986565b905092915050565b60008060408385031215612a1d57612a1c61237e565b5b6000612a2b858286016123d1565b9250506020612a3c858286016124a9565b9150509250929050565b600067ffffffffffffffff821115612a6157612a606126d1565b5b602082029050602081019050919050565b600080fd5b6000612a8a612a8584612a46565b612731565b90508083825260208201905060208402830185811115612aad57612aac612a72565b5b835b81811015612af457803567ffffffffffffffff811115612ad257612ad16126c7565b5b808601612adf89826127ce565b85526020850194505050602081019050612aaf565b5050509392505050565b600082601f830112612b1357612b126126c7565b5b8135612b23848260208601612a77565b91505092915050565b60008060008060808587031215612b4657612b4561237e565b5b600085013567ffffffffffffffff811115612b6457612b63612383565b5b612b70878288016127ce565b945050602085013567ffffffffffffffff811115612b9157612b90612383565b5b612b9d878288016127ce565b935050604085013567ffffffffffffffff811115612bbe57612bbd612383565b5b612bca878288016127ce565b925050606085013567ffffffffffffffff811115612beb57612bea612383565b5b612bf787828801612afe565b91505092959194509250565b60008060008060808587031215612c1d57612c1c61237e565b5b600085013567ffffffffffffffff811115612c3b57612c3a612383565b5b612c47878288016127ce565b945050602085013567ffffffffffffffff811115612c6857612c67612383565b5b612c74878288016127ce565b935050604085013567ffffffffffffffff811115612c9557612c94612383565b5b612ca1878288016127ce565b9250506060612cb2878288016123d1565b91505092959194509250565b600081519050919050565b600082825260208201905092915050565b6000819050602082019050919050565b600082825260208201905092915050565b6000612d06826124eb565b612d108185612cea565b9350612d20818560208601612507565b612d2981612531565b840191505092915050565b6000612d408383612cfb565b905092915050565b6000602082019050919050565b6000612d6082612cbe565b612d6a8185612cc9565b935083602082028501612d7c85612cda565b8060005b85811015612db85784840389528151612d998582612d34565b9450612da483612d48565b925060208a01995050600181019050612d80565b50829750879550505050505092915050565b600060e082019050612ddf600083018a612468565b8181036020830152612df18189612542565b90508181036040830152612e058188612542565b90508181036060830152612e198187612542565b90508181036080830152612e2d8186612d55565b9050612e3c60a0830185612468565b612e4960c083018461258a565b98975050505050505050565b600060e082019050612e6a600083018a612468565b8181036020830152612e7c8189612542565b90508181036040830152612e908188612542565b90508181036060830152612ea48187612542565b9050612eb36080830186612468565b612ec060a083018561258a565b612ecd60c083018461257b565b98975050505050505050565b6000602082019050612eee600083018461258a565b92915050565b6000606082019050612f096000830186612468565b612f166020830185612468565b612f236040830184612468565b949350505050565b6000602082019050612f40600083018461257b565b92915050565b7f4f6e6c79206f776e65722063616e2063616c6c20746869732066756e6374696f60008201527f6e00000000000000000000000000000000000000000000000000000000000000602082015250565b6000612fa26021836124f6565b9150612fad82612f46565b604082019050919050565b60006020820190508181036000830152612fd181612f95565b9050919050565b7f4e487b7100000000000000000000000000000000000000000000000000000000600052602260045260246000fd5b6000600282049050600182168061301f57607f821691505b60208210810361303257613031612fd8565b5b50919050565b7f4e6f7420617574686f72697a6564206973737565720000000000000000000000600082015250565b600061306e6015836124f6565b915061307982613038565b602082019050919050565b6000602082019050818103600083015261309d81613061565b9050919050565b7f4e487b7100000000000000000000000000000000000000000000000000000000600052601160045260246000fd5b60006130de8261245e565b91507fffffffffffffffffffffffffffffffffffffffffffffffffffffffffffffffff82036131105761310f6130a4565b5b600182019050919050565b60008190508160005260206000209050919050565b60006020601f8301049050919050565b600082821b905092915050565b60006008830261317d7fffffffffffffffffffffffffffffffffffffffffffffffffffffffffffffffff82613140565b6131878683613140565b95508019841693508086168417925050509392505050565b6000819050919050565b60006131c46131bf6131ba8461245e565b61319f565b61245e565b9050919050565b6000819050919050565b6131de836131a9565b6131f26131ea826131cb565b84845461314d565b825550505050565b600090565b6132076131fa565b6132128184846131d5565b505050565b5b818110156132365761322b6000826131ff565b600181019050613218565b5050565b601f82111561327b5761324c8161311b565b61325584613130565b81016020851015613264578190505b61327861327085613130565b830182613217565b50505b505050565b600082821c905092915050565b600061329e60001984600802613280565b1980831691505092915050565b60006132b7838361328d565b9150826002028217905092915050565b6132d0826124eb565b67ffffffffffffffff8111156132e9576132e86126d1565b5b6132f38254613007565b6132fe82828561323a565b600060209050601f831160018114613331576000841561331f578287015190505b61332985826132ab565b865550613391565b601f19841661333f8661311b565b60005b8281101561336757848901518255600182019150602085019450602081019050613342565b868310156133845784890151613380601f89168261328d565b8355505b6001600288020188555050505b505050505050565b600060408201905081810360008301526133b38185612542565b905081810360208301526133c78184612542565b90509392505050565b600060208201905081810360008301526133ea8184612542565b905092915050565b7f496e76616c696420706f7274666f6c696f204944000000000000000000000000600082015250565b60006134286014836124f6565b9150613433826133f2565b602082019050919050565b600060208201905081810360008301526134578161341b565b9050919050565b7f496e76616c696420626164676520494400000000000000000000000000000000600082015250565b60006134946010836124f6565b915061349f8261345e565b602082019050919050565b600060208201905081810360008301526134c381613487565b9050919050565b7f496e76616c6964207265636f7264204944000000000000000000000000000000600082015250565b60006135006011836124f6565b915061350b826134ca565b602082019050919050565b6000602082019050818103600083015261352f816134f3565b905091905056fea264697066735822122008d28f71f302fa52fd273e47f952fee32c8c1bf5f97b13bd4eebf099d3e4088264736f6c63430008140033",
  "linkReferences": {},
  "deployedLinkReferences": {}
}